{
  "contractName": "AAGToken",
  "abi": [
    {
      "inputs": [
        {
          "internalType": "address",
          "name": "admin_",
          "type": "address"
        },
        {
          "internalType": "address",
          "name": "recoveryAdmin_",
          "type": "address"
        },
        {
          "internalType": "uint256",
          "name": "timelockPeriod_",
          "type": "uint256"
        },
        {
          "internalType": "address",
          "name": "lossless_",
          "type": "address"
        },
        {
          "internalType": "bool",
          "name": "losslessOn",
          "type": "bool"
        }
      ],
      "stateMutability": "nonpayable",
      "type": "constructor"
    },
    {
      "anonymous": false,
      "inputs": [
        {
          "indexed": true,
          "internalType": "address",
          "name": "previousAdmin",
          "type": "address"
        },
        {
          "indexed": true,
          "internalType": "address",
          "name": "newAdmin",
          "type": "address"
        }
      ],
      "name": "AdminChanged",
      "type": "event"
    },
    {
      "anonymous": false,
      "inputs": [
        {
          "indexed": true,
          "internalType": "address",
          "name": "owner",
          "type": "address"
        },
        {
          "indexed": true,
          "internalType": "address",
          "name": "spender",
          "type": "address"
        },
        {
          "indexed": false,
          "internalType": "uint256",
          "name": "value",
          "type": "uint256"
        }
      ],
      "name": "Approval",
      "type": "event"
    },
    {
      "anonymous": false,
      "inputs": [
        {
          "indexed": false,
          "internalType": "uint256",
          "name": "turnOffDate",
          "type": "uint256"
        }
      ],
      "name": "LosslessTurnOffProposed",
      "type": "event"
    },
    {
      "anonymous": false,
      "inputs": [],
      "name": "LosslessTurnedOff",
      "type": "event"
    },
    {
      "anonymous": false,
      "inputs": [],
      "name": "LosslessTurnedOn",
      "type": "event"
    },
    {
      "anonymous": false,
      "inputs": [
        {
          "indexed": true,
          "internalType": "address",
          "name": "candidate",
          "type": "address"
        }
      ],
      "name": "RecoveryAdminChangeProposed",
      "type": "event"
    },
    {
      "anonymous": false,
      "inputs": [
        {
          "indexed": true,
          "internalType": "address",
          "name": "previousAdmin",
          "type": "address"
        },
        {
          "indexed": true,
          "internalType": "address",
          "name": "newAdmin",
          "type": "address"
        }
      ],
      "name": "RecoveryAdminChanged",
      "type": "event"
    },
    {
      "anonymous": false,
      "inputs": [
        {
          "indexed": true,
          "internalType": "address",
          "name": "from",
          "type": "address"
        },
        {
          "indexed": true,
          "internalType": "address",
          "name": "to",
          "type": "address"
        },
        {
          "indexed": false,
          "internalType": "uint256",
          "name": "value",
          "type": "uint256"
        }
      ],
      "name": "Transfer",
      "type": "event"
    },
    {
      "inputs": [],
      "name": "admin",
      "outputs": [
        {
          "internalType": "address",
          "name": "",
          "type": "address"
        }
      ],
      "stateMutability": "view",
      "type": "function",
      "constant": true
    },
    {
      "inputs": [],
      "name": "isLosslessOn",
      "outputs": [
        {
          "internalType": "bool",
          "name": "",
          "type": "bool"
        }
      ],
      "stateMutability": "view",
      "type": "function",
      "constant": true
    },
    {
      "inputs": [],
      "name": "isLosslessTurnOffProposed",
      "outputs": [
        {
          "internalType": "bool",
          "name": "",
          "type": "bool"
        }
      ],
      "stateMutability": "view",
      "type": "function",
      "constant": true
    },
    {
      "inputs": [],
      "name": "losslessTurnOffTimestamp",
      "outputs": [
        {
          "internalType": "uint256",
          "name": "",
          "type": "uint256"
        }
      ],
      "stateMutability": "view",
      "type": "function",
      "constant": true
    },
    {
      "inputs": [],
      "name": "recoveryAdmin",
      "outputs": [
        {
          "internalType": "address",
          "name": "",
          "type": "address"
        }
      ],
      "stateMutability": "view",
      "type": "function",
      "constant": true
    },
    {
      "inputs": [],
      "name": "timelockPeriod",
      "outputs": [
        {
          "internalType": "uint256",
          "name": "",
          "type": "uint256"
        }
      ],
      "stateMutability": "view",
      "type": "function",
      "constant": true
    },
    {
      "inputs": [],
      "name": "tokenBirthDate",
      "outputs": [
        {
          "internalType": "uint256",
          "name": "",
          "type": "uint256"
        }
      ],
      "stateMutability": "view",
      "type": "function",
      "constant": true
    },
    {
      "inputs": [
        {
          "internalType": "uint256",
          "name": "_tokenBirthDate",
          "type": "uint256"
        }
      ],
      "name": "setTokenBirthday",
      "outputs": [],
      "stateMutability": "nonpayable",
      "type": "function"
    },
    {
      "inputs": [],
      "name": "getBirthdayDate",
      "outputs": [
        {
          "internalType": "uint256",
          "name": "",
          "type": "uint256"
        }
      ],
      "stateMutability": "view",
      "type": "function",
      "constant": true
    },
    {
      "inputs": [],
      "name": "claimInitialPoolTokens",
      "outputs": [],
      "stateMutability": "nonpayable",
      "type": "function"
    },
    {
      "inputs": [],
      "name": "claimTreasuryTokens",
      "outputs": [],
      "stateMutability": "nonpayable",
      "type": "function"
    },
    {
      "inputs": [],
      "name": "claimVestingTokens",
      "outputs": [],
      "stateMutability": "nonpayable",
      "type": "function"
    },
    {
      "inputs": [],
      "name": "getAdmin",
      "outputs": [
        {
          "internalType": "address",
          "name": "",
          "type": "address"
        }
      ],
      "stateMutability": "view",
      "type": "function",
      "constant": true
    },
    {
      "inputs": [
        {
          "internalType": "address[]",
          "name": "from",
          "type": "address[]"
        }
      ],
      "name": "transferOutBlacklistedFunds",
      "outputs": [],
      "stateMutability": "nonpayable",
      "type": "function"
    },
    {
      "inputs": [
        {
          "internalType": "address",
          "name": "newAdmin",
          "type": "address"
        }
      ],
      "name": "setLosslessAdmin",
      "outputs": [],
      "stateMutability": "nonpayable",
      "type": "function"
    },
    {
      "inputs": [
        {
          "internalType": "address",
          "name": "candidate",
          "type": "address"
        },
        {
          "internalType": "bytes32",
          "name": "keyHash",
          "type": "bytes32"
        }
      ],
      "name": "transferRecoveryAdminOwnership",
      "outputs": [],
      "stateMutability": "nonpayable",
      "type": "function"
    },
    {
      "inputs": [
        {
          "internalType": "bytes",
          "name": "key",
          "type": "bytes"
        }
      ],
      "name": "acceptRecoveryAdminOwnership",
      "outputs": [],
      "stateMutability": "nonpayable",
      "type": "function"
    },
    {
      "inputs": [],
      "name": "proposeLosslessTurnOff",
      "outputs": [],
      "stateMutability": "nonpayable",
      "type": "function"
    },
    {
      "inputs": [],
      "name": "executeLosslessTurnOff",
      "outputs": [],
      "stateMutability": "nonpayable",
      "type": "function"
    },
    {
      "inputs": [],
      "name": "executeLosslessTurnOn",
      "outputs": [],
      "stateMutability": "nonpayable",
      "type": "function"
    },
    {
      "inputs": [],
      "name": "name",
      "outputs": [
        {
          "internalType": "string",
          "name": "",
          "type": "string"
        }
      ],
      "stateMutability": "view",
      "type": "function",
      "constant": true
    },
    {
      "inputs": [],
      "name": "symbol",
      "outputs": [
        {
          "internalType": "string",
          "name": "",
          "type": "string"
        }
      ],
      "stateMutability": "view",
      "type": "function",
      "constant": true
    },
    {
      "inputs": [],
      "name": "decimals",
      "outputs": [
        {
          "internalType": "uint8",
          "name": "",
          "type": "uint8"
        }
      ],
      "stateMutability": "view",
      "type": "function",
      "constant": true
    },
    {
      "inputs": [],
      "name": "totalSupply",
      "outputs": [
        {
          "internalType": "uint256",
          "name": "",
          "type": "uint256"
        }
      ],
      "stateMutability": "view",
      "type": "function",
      "constant": true
    },
    {
      "inputs": [
        {
          "internalType": "address",
          "name": "account",
          "type": "address"
        }
      ],
      "name": "balanceOf",
      "outputs": [
        {
          "internalType": "uint256",
          "name": "",
          "type": "uint256"
        }
      ],
      "stateMutability": "view",
      "type": "function",
      "constant": true
    },
    {
      "inputs": [
        {
          "internalType": "address",
          "name": "recipient",
          "type": "address"
        },
        {
          "internalType": "uint256",
          "name": "amount",
          "type": "uint256"
        }
      ],
      "name": "transfer",
      "outputs": [
        {
          "internalType": "bool",
          "name": "",
          "type": "bool"
        }
      ],
      "stateMutability": "nonpayable",
      "type": "function"
    },
    {
      "inputs": [
        {
          "internalType": "address",
          "name": "owner",
          "type": "address"
        },
        {
          "internalType": "address",
          "name": "spender",
          "type": "address"
        }
      ],
      "name": "allowance",
      "outputs": [
        {
          "internalType": "uint256",
          "name": "",
          "type": "uint256"
        }
      ],
      "stateMutability": "view",
      "type": "function",
      "constant": true
    },
    {
      "inputs": [
        {
          "internalType": "address",
          "name": "spender",
          "type": "address"
        },
        {
          "internalType": "uint256",
          "name": "amount",
          "type": "uint256"
        }
      ],
      "name": "approve",
      "outputs": [
        {
          "internalType": "bool",
          "name": "",
          "type": "bool"
        }
      ],
      "stateMutability": "nonpayable",
      "type": "function"
    },
    {
      "inputs": [
        {
          "internalType": "address",
          "name": "sender",
          "type": "address"
        },
        {
          "internalType": "address",
          "name": "recipient",
          "type": "address"
        },
        {
          "internalType": "uint256",
          "name": "amount",
          "type": "uint256"
        }
      ],
      "name": "transferFrom",
      "outputs": [
        {
          "internalType": "bool",
          "name": "",
          "type": "bool"
        }
      ],
      "stateMutability": "nonpayable",
      "type": "function"
    },
    {
      "inputs": [
        {
          "internalType": "address",
          "name": "spender",
          "type": "address"
        },
        {
          "internalType": "uint256",
          "name": "addedValue",
          "type": "uint256"
        }
      ],
      "name": "increaseAllowance",
      "outputs": [
        {
          "internalType": "bool",
          "name": "",
          "type": "bool"
        }
      ],
      "stateMutability": "nonpayable",
      "type": "function"
    },
    {
      "inputs": [
        {
          "internalType": "address",
          "name": "spender",
          "type": "address"
        },
        {
          "internalType": "uint256",
          "name": "subtractedValue",
          "type": "uint256"
        }
      ],
      "name": "decreaseAllowance",
      "outputs": [
        {
          "internalType": "bool",
          "name": "",
          "type": "bool"
        }
      ],
      "stateMutability": "nonpayable",
      "type": "function"
    }
  ],
  "bytecode": "0x60806040526001600960016101000a81548160ff0219169083151502179055506000600a556000600b60006101000a81548160ff0219169083151502179055506000600b60016101000a81548160ff0219169083151502179055506000600b60166101000a81548160ff0219169083151502179055503480156200008257600080fd5b50604051620040fb380380620040fb8339818101604052810190620000a89190620003e8565b620000c6306b033b2e3c9fd0803ce8000000620001b560201b60201c565b84600660006101000a81548173ffffffffffffffffffffffffffffffffffffffff021916908373ffffffffffffffffffffffffffffffffffffffff16021790555083600360006101000a81548173ffffffffffffffffffffffffffffffffffffffff021916908373ffffffffffffffffffffffffffffffffffffffff1602179055508260078190555080600960016101000a81548160ff02191690831515021790555081600960026101000a81548173ffffffffffffffffffffffffffffffffffffffff021916908373ffffffffffffffffffffffffffffffffffffffff1602179055505050505050620005ad565b600073ffffffffffffffffffffffffffffffffffffffff168273ffffffffffffffffffffffffffffffffffffffff16141562000228576040517f08c379a00000000000000000000000000000000000000000000000000000000081526004016200021f90620004d1565b60405180910390fd5b80600260008282546200023c919062000522565b92505081905550806000808473ffffffffffffffffffffffffffffffffffffffff1673ffffffffffffffffffffffffffffffffffffffff168152602001908152602001600020600082825462000293919062000522565b925050819055508173ffffffffffffffffffffffffffffffffffffffff16600073ffffffffffffffffffffffffffffffffffffffff167fddf252ad1be2c89b69c2b068fc378daa952ba7f163c4a11628f55a4df523b3ef83604051620002fa919062000590565b60405180910390a35050565b600080fd5b600073ffffffffffffffffffffffffffffffffffffffff82169050919050565b600062000338826200030b565b9050919050565b6200034a816200032b565b81146200035657600080fd5b50565b6000815190506200036a816200033f565b92915050565b6000819050919050565b620003858162000370565b81146200039157600080fd5b50565b600081519050620003a5816200037a565b92915050565b60008115159050919050565b620003c281620003ab565b8114620003ce57600080fd5b50565b600081519050620003e281620003b7565b92915050565b600080600080600060a0868803121562000407576200040662000306565b5b6000620004178882890162000359565b95505060206200042a8882890162000359565b94505060406200043d8882890162000394565b9350506060620004508882890162000359565b92505060806200046388828901620003d1565b9150509295509295909350565b600082825260208201905092915050565b7f45524332303a206d696e7420746f20746865207a65726f206164647265737300600082015250565b6000620004b9601f8362000470565b9150620004c68262000481565b602082019050919050565b60006020820190508181036000830152620004ec81620004aa565b9050919050565b7f4e487b7100000000000000000000000000000000000000000000000000000000600052601160045260246000fd5b60006200052f8262000370565b91506200053c8362000370565b9250827fffffffffffffffffffffffffffffffffffffffffffffffffffffffffffffffff03821115620005745762000573620004f3565b5b828201905092915050565b6200058a8162000370565b82525050565b6000602082019050620005a760008301846200057f565b92915050565b613b3e80620005bd6000396000f3fe608060405234801561001057600080fd5b50600436106101e45760003560e01c80636e9960c31161010f578063b38fe957116100a2578063dd62ed3e11610071578063dd62ed3e146104fd578063e5dc95391461052d578063efab831c1461054b578063f851a44014610569576101e4565b8063b38fe957146104af578063b5c22877146104b9578063ccfa214f146104d5578063d6e242b8146104f3576101e4565b8063936af911116100de578063936af9111461041557806395d89b4114610431578063a457c2d71461044f578063a9059cbb1461047f576101e4565b80636e9960c3146103a157806370a08231146103bf578063890bb0e0146103ef57806393310ffe146103f9576101e4565b80632ecaf675116101875780635b8a194a116101565780635b8a194a146103515780635f6529a31461035b57806361086b0014610379578063697c67a614610397576101e4565b80632ecaf675146102db578063313ce567146102f95780633950935114610317578063584fac8614610347576101e4565b806318160ddd116101c357806318160ddd14610255578063211aadb01461027357806323b872dd1461028f5780632baa3c9e146102bf576101e4565b806226f499146101e957806306fdde0314610207578063095ea7b314610225575b600080fd5b6101f1610587565b6040516101fe9190612a4e565b60405180910390f35b61020f610591565b60405161021c9190612b02565b60405180910390f35b61023f600480360381019061023a9190612bc2565b6105ce565b60405161024c9190612c1d565b60405180910390f35b61025d6108f3565b60405161026a9190612a4e565b60405180910390f35b61028d60048036038101906102889190612c38565b6108fd565b005b6102a960048036038101906102a49190612c65565b610a25565b6040516102b69190612c1d565b60405180910390f35b6102d960048036038101906102d49190612cb8565b610d73565b005b6102e3610eca565b6040516102f09190612a4e565b60405180910390f35b610301610ed0565b60405161030e9190612d01565b60405180910390f35b610331600480360381019061032c9190612bc2565b610ed9565b60405161033e9190612c1d565b60405180910390f35b61034f611178565b005b61035961132c565b005b610363611427565b6040516103709190612d2b565b60405180910390f35b61038161144d565b60405161038e9190612a4e565b60405180910390f35b61039f611453565b005b6103a9611673565b6040516103b69190612d2b565b60405180910390f35b6103d960048036038101906103d49190612cb8565b61169d565b6040516103e69190612a4e565b60405180910390f35b6103f76116e5565b005b610413600480360381019061040e9190612d7c565b611948565b005b61042f600480360381019061042a9190612e21565b611a6e565b005b610439611bae565b6040516104469190612b02565b60405180910390f35b61046960048036038101906104649190612bc2565b611beb565b6040516104769190612c1d565b60405180910390f35b61049960048036038101906104949190612bc2565b611f1c565b6040516104a69190612c1d565b60405180910390f35b6104b761209f565b005b6104d360048036038101906104ce9190612f9e565b61222e565b005b6104dd612414565b6040516104ea9190612c1d565b60405180910390f35b6104fb612427565b005b61051760048036038101906105129190612fe7565b612528565b6040516105249190612a4e565b60405180910390f35b6105356125af565b6040516105429190612a4e565b60405180910390f35b6105536125b5565b6040516105609190612c1d565b60405180910390f35b6105716125c8565b60405161057e9190612d2b565b60405180910390f35b6000600a54905090565b60606040518060400160405280600381526020017f4141470000000000000000000000000000000000000000000000000000000000815250905090565b60008282600960019054906101000a900460ff161561080357600960029054906101000a900473ffffffffffffffffffffffffffffffffffffffff1673ffffffffffffffffffffffffffffffffffffffff166347abf3be61062d6125ee565b84846040518463ffffffff1660e01b815260040161064d93929190613027565b600060405180830381600087803b15801561066757600080fd5b505af115801561067b573d6000803e3d6000fd5b50505050600084148061071157506000600160006106976125ee565b73ffffffffffffffffffffffffffffffffffffffff1673ffffffffffffffffffffffffffffffffffffffff16815260200190815260200160002060008773ffffffffffffffffffffffffffffffffffffffff1673ffffffffffffffffffffffffffffffffffffffff16815260200190815260200160002054145b610750576040517f08c379a0000000000000000000000000000000000000000000000000000000008152600401610747906130d0565b60405180910390fd5b61076261075b6125ee565b86866125f6565b60019250600960029054906101000a900473ffffffffffffffffffffffffffffffffffffffff1673ffffffffffffffffffffffffffffffffffffffff1663900f66ef6107ac6125ee565b84846040518463ffffffff1660e01b81526004016107cc93929190613027565b600060405180830381600087803b1580156107e657600080fd5b505af11580156107fa573d6000803e3d6000fd5b505050506108eb565b6000841480610895575060006001600061081b6125ee565b73ffffffffffffffffffffffffffffffffffffffff1673ffffffffffffffffffffffffffffffffffffffff16815260200190815260200160002060008773ffffffffffffffffffffffffffffffffffffffff1673ffffffffffffffffffffffffffffffffffffffff16815260200190815260200160002054145b6108d4576040517f08c379a00000000000000000000000000000000000000000000000000000000081526004016108cb906130d0565b60405180910390fd5b6108e66108df6125ee565b86866125f6565b600192505b505092915050565b6000600254905090565b600360009054906101000a900473ffffffffffffffffffffffffffffffffffffffff1673ffffffffffffffffffffffffffffffffffffffff1661093e6125ee565b73ffffffffffffffffffffffffffffffffffffffff1614610994576040517f08c379a000000000000000000000000000000000000000000000000000000000815260040161098b9061313c565b60405180910390fd5b6000600a54146109d9576040517f08c379a00000000000000000000000000000000000000000000000000000000081526004016109d0906131a8565b60405180910390fd5b428111610a1b576040517f08c379a0000000000000000000000000000000000000000000000000000000008152600401610a1290613214565b60405180910390fd5b80600a8190555050565b6000838383600960019054906101000a900460ff1615610c7057600960029054906101000a900473ffffffffffffffffffffffffffffffffffffffff1673ffffffffffffffffffffffffffffffffffffffff1663379f5c69610a856125ee565b8585856040518563ffffffff1660e01b8152600401610aa79493929190613234565b600060405180830381600087803b158015610ac157600080fd5b505af1158015610ad5573d6000803e3d6000fd5b50505050610ae48787876127c1565b6000600160008973ffffffffffffffffffffffffffffffffffffffff1673ffffffffffffffffffffffffffffffffffffffff1681526020019081526020016000206000610b2f6125ee565b73ffffffffffffffffffffffffffffffffffffffff1673ffffffffffffffffffffffffffffffffffffffff16815260200190815260200160002054905085811015610baf576040517f08c379a0000000000000000000000000000000000000000000000000000000008152600401610ba6906132eb565b60405180910390fd5b610bcc88610bbb6125ee565b8884610bc7919061333a565b6125f6565b6001945050600960029054906101000a900473ffffffffffffffffffffffffffffffffffffffff1673ffffffffffffffffffffffffffffffffffffffff1663a56e8adf610c176125ee565b8585856040518563ffffffff1660e01b8152600401610c399493929190613234565b600060405180830381600087803b158015610c5357600080fd5b505af1158015610c67573d6000803e3d6000fd5b50505050610d69565b610c7b8787876127c1565b6000600160008973ffffffffffffffffffffffffffffffffffffffff1673ffffffffffffffffffffffffffffffffffffffff1681526020019081526020016000206000610cc66125ee565b73ffffffffffffffffffffffffffffffffffffffff1673ffffffffffffffffffffffffffffffffffffffff16815260200190815260200160002054905085811015610d46576040517f08c379a0000000000000000000000000000000000000000000000000000000008152600401610d3d906132eb565b60405180910390fd5b610d6388610d526125ee565b8884610d5e919061333a565b6125f6565b60019450505b5050509392505050565b600360009054906101000a900473ffffffffffffffffffffffffffffffffffffffff1673ffffffffffffffffffffffffffffffffffffffff16610db46125ee565b73ffffffffffffffffffffffffffffffffffffffff1614610e0a576040517f08c379a0000000000000000000000000000000000000000000000000000000008152600401610e019061313c565b60405180910390fd5b8073ffffffffffffffffffffffffffffffffffffffff16600660009054906101000a900473ffffffffffffffffffffffffffffffffffffffff1673ffffffffffffffffffffffffffffffffffffffff167f7e644d79422f17c01e4894b5f4f588d331ebfa28653d42ae832dc59e38c9798f60405160405180910390a380600660006101000a81548173ffffffffffffffffffffffffffffffffffffffff021916908373ffffffffffffffffffffffffffffffffffffffff16021790555050565b60075481565b60006012905090565b60008282600960019054906101000a900460ff16156110cb57600960029054906101000a900473ffffffffffffffffffffffffffffffffffffffff1673ffffffffffffffffffffffffffffffffffffffff1663cf5961bb610f386125ee565b84846040518463ffffffff1660e01b8152600401610f5893929190613027565b600060405180830381600087803b158015610f7257600080fd5b505af1158015610f86573d6000803e3d6000fd5b5050505061102a610f956125ee565b868660016000610fa36125ee565b73ffffffffffffffffffffffffffffffffffffffff1673ffffffffffffffffffffffffffffffffffffffff16815260200190815260200160002060008a73ffffffffffffffffffffffffffffffffffffffff1673ffffffffffffffffffffffffffffffffffffffff16815260200190815260200160002054611025919061336e565b6125f6565b60019250600960029054906101000a900473ffffffffffffffffffffffffffffffffffffffff1673ffffffffffffffffffffffffffffffffffffffff166334d01aa86110746125ee565b84846040518463ffffffff1660e01b815260040161109493929190613027565b600060405180830381600087803b1580156110ae57600080fd5b505af11580156110c2573d6000803e3d6000fd5b50505050611170565b61116b6110d66125ee565b8686600160006110e46125ee565b73ffffffffffffffffffffffffffffffffffffffff1673ffffffffffffffffffffffffffffffffffffffff16815260200190815260200160002060008a73ffffffffffffffffffffffffffffffffffffffff1673ffffffffffffffffffffffffffffffffffffffff16815260200190815260200160002054611166919061336e565b6125f6565b600192505b505092915050565b600360009054906101000a900473ffffffffffffffffffffffffffffffffffffffff1673ffffffffffffffffffffffffffffffffffffffff166111b96125ee565b73ffffffffffffffffffffffffffffffffffffffff161461120f576040517f08c379a00000000000000000000000000000000000000000000000000000000081526004016112069061313c565b60405180910390fd5b6000600a541415611255576040517f08c379a000000000000000000000000000000000000000000000000000000000815260040161124c90613410565b60405180910390fd5b60001515600b60009054906101000a900460ff161515146112ab576040517f08c379a00000000000000000000000000000000000000000000000000000000081526004016112a29061347c565b60405180910390fd5b6001600b60006101000a81548160ff02191690831515021790555061132a30600660009054906101000a900473ffffffffffffffffffffffffffffffffffffffff166a16bf59fcb70386cb8000006a0422ca8b0a00a4250000006a18d0bf423c03d8de00000061131b919061336e565b611325919061336e565b6127c1565b565b600360009054906101000a900473ffffffffffffffffffffffffffffffffffffffff1673ffffffffffffffffffffffffffffffffffffffff1661136d6125ee565b73ffffffffffffffffffffffffffffffffffffffff16146113c3576040517f08c379a00000000000000000000000000000000000000000000000000000000081526004016113ba9061313c565b60405180910390fd5b6000600960006101000a81548160ff0219169083151502179055506001600960016101000a81548160ff0219169083151502179055507fa4a40bdd0a809720a61b44f1b3497ce7dad87741a0ba3b961c2e65e645060e7060405160405180910390a1565b600360009054906101000a900473ffffffffffffffffffffffffffffffffffffffff1681565b60085481565b600360009054906101000a900473ffffffffffffffffffffffffffffffffffffffff1673ffffffffffffffffffffffffffffffffffffffff166114946125ee565b73ffffffffffffffffffffffffffffffffffffffff16146114ea576040517f08c379a00000000000000000000000000000000000000000000000000000000081526004016114e19061313c565b60405180910390fd5b6000600a541415611530576040517f08c379a000000000000000000000000000000000000000000000000000000000815260040161152790613410565b60405180910390fd5b426234bc00600a54611542919061336e565b10611582576040517f08c379a0000000000000000000000000000000000000000000000000000000008152600401611579906134e8565b60405180910390fd5b6000600a5414156115c8576040517f08c379a00000000000000000000000000000000000000000000000000000000081526004016115bf90613410565b60405180910390fd5b60001515600b60019054906101000a900460ff1615151461161e576040517f08c379a00000000000000000000000000000000000000000000000000000000081526004016116159061347c565b60405180910390fd5b6001600b60016101000a81548160ff02191690831515021790555061167130600660009054906101000a900473ffffffffffffffffffffffffffffffffffffffff166a7c13bc4b2c133c560000006127c1565b565b6000600660009054906101000a900473ffffffffffffffffffffffffffffffffffffffff16905090565b60008060008373ffffffffffffffffffffffffffffffffffffffff1673ffffffffffffffffffffffffffffffffffffffff168152602001908152602001600020549050919050565b600360009054906101000a900473ffffffffffffffffffffffffffffffffffffffff1673ffffffffffffffffffffffffffffffffffffffff166117266125ee565b73ffffffffffffffffffffffffffffffffffffffff161461177c576040517f08c379a00000000000000000000000000000000000000000000000000000000081526004016117739061313c565b60405180910390fd5b6000600a5414156117c2576040517f08c379a00000000000000000000000000000000000000000000000000000000081526004016117b990613410565b60405180910390fd5b426234bc00600a546117d4919061336e565b10611814576040517f08c379a000000000000000000000000000000000000000000000000000000000815260040161180b906134e8565b60405180910390fd5b6000600a54141561185a576040517f08c379a000000000000000000000000000000000000000000000000000000000815260040161185190613410565b60405180910390fd5b60001515600b60169054906101000a900460ff161515146118b0576040517f08c379a00000000000000000000000000000000000000000000000000000000081526004016118a79061347c565b60405180910390fd5b6001600b60166101000a81548160ff02191690831515021790555061194630600660009054906101000a900473ffffffffffffffffffffffffffffffffffffffff166b015324e089343493da0000006a52b7d2dcc80cd2e40000006a18d0bf423c03d8de0000006accba29e26f1fbd2780000061192d919061336e565b611937919061336e565b611941919061336e565b6127c1565b565b600360009054906101000a900473ffffffffffffffffffffffffffffffffffffffff1673ffffffffffffffffffffffffffffffffffffffff166119896125ee565b73ffffffffffffffffffffffffffffffffffffffff16146119df576040517f08c379a00000000000000000000000000000000000000000000000000000000081526004016119d69061313c565b60405180910390fd5b81600460006101000a81548173ffffffffffffffffffffffffffffffffffffffff021916908373ffffffffffffffffffffffffffffffffffffffff160217905550806005819055508173ffffffffffffffffffffffffffffffffffffffff167fc5666bfdfb79a4b0b4abdbc565d6e9937a263233b2b378c55132d34dc5784a3660405160405180910390a25050565b600960029054906101000a900473ffffffffffffffffffffffffffffffffffffffff1673ffffffffffffffffffffffffffffffffffffffff16611aaf6125ee565b73ffffffffffffffffffffffffffffffffffffffff1614611b05576040517f08c379a0000000000000000000000000000000000000000000000000000000008152600401611afc90613554565b60405180910390fd5b60005b82829050811015611ba957611b96838383818110611b2957611b28613574565b5b9050602002016020810190611b3e9190612cb8565b600960029054906101000a900473ffffffffffffffffffffffffffffffffffffffff16611b91868686818110611b7757611b76613574565b5b9050602002016020810190611b8c9190612cb8565b61169d565b6127c1565b8080611ba1906135a3565b915050611b08565b505050565b60606040518060400160405280600381526020017f4141470000000000000000000000000000000000000000000000000000000000815250905090565b60008282600960019054906101000a900460ff1615611e2657600960029054906101000a900473ffffffffffffffffffffffffffffffffffffffff1673ffffffffffffffffffffffffffffffffffffffff1663568c75a9611c4a6125ee565b84846040518463ffffffff1660e01b8152600401611c6a93929190613027565b600060405180830381600087803b158015611c8457600080fd5b505af1158015611c98573d6000803e3d6000fd5b50505050600060016000611caa6125ee565b73ffffffffffffffffffffffffffffffffffffffff1673ffffffffffffffffffffffffffffffffffffffff16815260200190815260200160002060008773ffffffffffffffffffffffffffffffffffffffff1673ffffffffffffffffffffffffffffffffffffffff16815260200190815260200160002054905084811015611d67576040517f08c379a0000000000000000000000000000000000000000000000000000000008152600401611d5e9061365e565b60405180910390fd5b611d84611d726125ee565b878784611d7f919061333a565b6125f6565b6001935050600960029054906101000a900473ffffffffffffffffffffffffffffffffffffffff1673ffffffffffffffffffffffffffffffffffffffff1663ded1f4d0611dcf6125ee565b84846040518463ffffffff1660e01b8152600401611def93929190613027565b600060405180830381600087803b158015611e0957600080fd5b505af1158015611e1d573d6000803e3d6000fd5b50505050611f14565b600060016000611e346125ee565b73ffffffffffffffffffffffffffffffffffffffff1673ffffffffffffffffffffffffffffffffffffffff16815260200190815260200160002060008773ffffffffffffffffffffffffffffffffffffffff1673ffffffffffffffffffffffffffffffffffffffff16815260200190815260200160002054905084811015611ef1576040517f08c379a0000000000000000000000000000000000000000000000000000000008152600401611ee89061365e565b60405180910390fd5b611f0e611efc6125ee565b878784611f09919061333a565b6125f6565b60019350505b505092915050565b60008282600960019054906101000a900460ff161561208057600960029054906101000a900473ffffffffffffffffffffffffffffffffffffffff1673ffffffffffffffffffffffffffffffffffffffff16631ffb811f611f7b6125ee565b84846040518463ffffffff1660e01b8152600401611f9b93929190613027565b600060405180830381600087803b158015611fb557600080fd5b505af1158015611fc9573d6000803e3d6000fd5b50505050611fdf611fd86125ee565b86866127c1565b60019250600960029054906101000a900473ffffffffffffffffffffffffffffffffffffffff1673ffffffffffffffffffffffffffffffffffffffff1663f49062ca6120296125ee565b84846040518463ffffffff1660e01b815260040161204993929190613027565b600060405180830381600087803b15801561206357600080fd5b505af1158015612077573d6000803e3d6000fd5b50505050612097565b61209261208b6125ee565b86866127c1565b600192505b505092915050565b600360009054906101000a900473ffffffffffffffffffffffffffffffffffffffff1673ffffffffffffffffffffffffffffffffffffffff166120e06125ee565b73ffffffffffffffffffffffffffffffffffffffff1614612136576040517f08c379a000000000000000000000000000000000000000000000000000000000815260040161212d9061313c565b60405180910390fd5b600960009054906101000a900460ff16612185576040517f08c379a000000000000000000000000000000000000000000000000000000000815260040161217c906136ca565b60405180910390fd5b4260085411156121ca576040517f08c379a00000000000000000000000000000000000000000000000000000000081526004016121c190613736565b60405180910390fd5b6000600960016101000a81548160ff0219169083151502179055506000600960006101000a81548160ff0219169083151502179055507f5b534e2716e5ad68b9f67521378f8199a7ceb9d3f6f354275dad33fe42cf710a60405160405180910390a1565b600460009054906101000a900473ffffffffffffffffffffffffffffffffffffffff1673ffffffffffffffffffffffffffffffffffffffff1661226f6125ee565b73ffffffffffffffffffffffffffffffffffffffff16146122c5576040517f08c379a00000000000000000000000000000000000000000000000000000000081526004016122bc906137a2565b60405180910390fd5b600554818051906020012014612310576040517f08c379a00000000000000000000000000000000000000000000000000000000081526004016123079061380e565b60405180910390fd5b600460009054906101000a900473ffffffffffffffffffffffffffffffffffffffff1673ffffffffffffffffffffffffffffffffffffffff16600360009054906101000a900473ffffffffffffffffffffffffffffffffffffffff1673ffffffffffffffffffffffffffffffffffffffff167f1c7f382531621f02aefb4212478bba8871ffad078202bdbba87f3e21d639aebb60405160405180910390a3600460009054906101000a900473ffffffffffffffffffffffffffffffffffffffff16600360006101000a81548173ffffffffffffffffffffffffffffffffffffffff021916908373ffffffffffffffffffffffffffffffffffffffff16021790555050565b600960019054906101000a900460ff1681565b600360009054906101000a900473ffffffffffffffffffffffffffffffffffffffff1673ffffffffffffffffffffffffffffffffffffffff166124686125ee565b73ffffffffffffffffffffffffffffffffffffffff16146124be576040517f08c379a00000000000000000000000000000000000000000000000000000000081526004016124b59061313c565b60405180910390fd5b600754426124cc919061336e565b6008819055506001600960006101000a81548160ff0219169083151502179055507f88e0be0448355c71674462d3cb36342f0d085f7b43a1deab03052c95eb15870960085460405161251e9190612a4e565b60405180910390a1565b6000600160008473ffffffffffffffffffffffffffffffffffffffff1673ffffffffffffffffffffffffffffffffffffffff16815260200190815260200160002060008373ffffffffffffffffffffffffffffffffffffffff1673ffffffffffffffffffffffffffffffffffffffff16815260200190815260200160002054905092915050565b600a5481565b600960009054906101000a900460ff1681565b600660009054906101000a900473ffffffffffffffffffffffffffffffffffffffff1681565b600033905090565b600073ffffffffffffffffffffffffffffffffffffffff168373ffffffffffffffffffffffffffffffffffffffff161415612666576040517f08c379a000000000000000000000000000000000000000000000000000000000815260040161265d906138a0565b60405180910390fd5b600073ffffffffffffffffffffffffffffffffffffffff168273ffffffffffffffffffffffffffffffffffffffff1614156126d6576040517f08c379a00000000000000000000000000000000000000000000000000000000081526004016126cd90613932565b60405180910390fd5b80600160008573ffffffffffffffffffffffffffffffffffffffff1673ffffffffffffffffffffffffffffffffffffffff16815260200190815260200160002060008473ffffffffffffffffffffffffffffffffffffffff1673ffffffffffffffffffffffffffffffffffffffff168152602001908152602001600020819055508173ffffffffffffffffffffffffffffffffffffffff168373ffffffffffffffffffffffffffffffffffffffff167f8c5be1e5ebec7d5bd14f71427d1e84f3dd0314c0f7b2291e5b200ac8c7c3b925836040516127b49190612a4e565b60405180910390a3505050565b600073ffffffffffffffffffffffffffffffffffffffff168373ffffffffffffffffffffffffffffffffffffffff161415612831576040517f08c379a0000000000000000000000000000000000000000000000000000000008152600401612828906139c4565b60405180910390fd5b600073ffffffffffffffffffffffffffffffffffffffff168273ffffffffffffffffffffffffffffffffffffffff1614156128a1576040517f08c379a000000000000000000000000000000000000000000000000000000000815260040161289890613a56565b60405180910390fd5b60008060008573ffffffffffffffffffffffffffffffffffffffff1673ffffffffffffffffffffffffffffffffffffffff16815260200190815260200160002054905081811015612927576040517f08c379a000000000000000000000000000000000000000000000000000000000815260040161291e90613ae8565b60405180910390fd5b8181612933919061333a565b6000808673ffffffffffffffffffffffffffffffffffffffff1673ffffffffffffffffffffffffffffffffffffffff16815260200190815260200160002081905550816000808573ffffffffffffffffffffffffffffffffffffffff1673ffffffffffffffffffffffffffffffffffffffff16815260200190815260200160002060008282546129c3919061336e565b925050819055508273ffffffffffffffffffffffffffffffffffffffff168473ffffffffffffffffffffffffffffffffffffffff167fddf252ad1be2c89b69c2b068fc378daa952ba7f163c4a11628f55a4df523b3ef84604051612a279190612a4e565b60405180910390a350505050565b6000819050919050565b612a4881612a35565b82525050565b6000602082019050612a636000830184612a3f565b92915050565b600081519050919050565b600082825260208201905092915050565b60005b83811015612aa3578082015181840152602081019050612a88565b83811115612ab2576000848401525b50505050565b6000601f19601f8301169050919050565b6000612ad482612a69565b612ade8185612a74565b9350612aee818560208601612a85565b612af781612ab8565b840191505092915050565b60006020820190508181036000830152612b1c8184612ac9565b905092915050565b6000604051905090565b600080fd5b600080fd5b600073ffffffffffffffffffffffffffffffffffffffff82169050919050565b6000612b6382612b38565b9050919050565b612b7381612b58565b8114612b7e57600080fd5b50565b600081359050612b9081612b6a565b92915050565b612b9f81612a35565b8114612baa57600080fd5b50565b600081359050612bbc81612b96565b92915050565b60008060408385031215612bd957612bd8612b2e565b5b6000612be785828601612b81565b9250506020612bf885828601612bad565b9150509250929050565b60008115159050919050565b612c1781612c02565b82525050565b6000602082019050612c326000830184612c0e565b92915050565b600060208284031215612c4e57612c4d612b2e565b5b6000612c5c84828501612bad565b91505092915050565b600080600060608486031215612c7e57612c7d612b2e565b5b6000612c8c86828701612b81565b9350506020612c9d86828701612b81565b9250506040612cae86828701612bad565b9150509250925092565b600060208284031215612cce57612ccd612b2e565b5b6000612cdc84828501612b81565b91505092915050565b600060ff82169050919050565b612cfb81612ce5565b82525050565b6000602082019050612d166000830184612cf2565b92915050565b612d2581612b58565b82525050565b6000602082019050612d406000830184612d1c565b92915050565b6000819050919050565b612d5981612d46565b8114612d6457600080fd5b50565b600081359050612d7681612d50565b92915050565b60008060408385031215612d9357612d92612b2e565b5b6000612da185828601612b81565b9250506020612db285828601612d67565b9150509250929050565b600080fd5b600080fd5b600080fd5b60008083601f840112612de157612de0612dbc565b5b8235905067ffffffffffffffff811115612dfe57612dfd612dc1565b5b602083019150836020820283011115612e1a57612e19612dc6565b5b9250929050565b60008060208385031215612e3857612e37612b2e565b5b600083013567ffffffffffffffff811115612e5657612e55612b33565b5b612e6285828601612dcb565b92509250509250929050565b600080fd5b7f4e487b7100000000000000000000000000000000000000000000000000000000600052604160045260246000fd5b612eab82612ab8565b810181811067ffffffffffffffff82111715612eca57612ec9612e73565b5b80604052505050565b6000612edd612b24565b9050612ee98282612ea2565b919050565b600067ffffffffffffffff821115612f0957612f08612e73565b5b612f1282612ab8565b9050602081019050919050565b82818337600083830152505050565b6000612f41612f3c84612eee565b612ed3565b905082815260208101848484011115612f5d57612f5c612e6e565b5b612f68848285612f1f565b509392505050565b600082601f830112612f8557612f84612dbc565b5b8135612f95848260208601612f2e565b91505092915050565b600060208284031215612fb457612fb3612b2e565b5b600082013567ffffffffffffffff811115612fd257612fd1612b33565b5b612fde84828501612f70565b91505092915050565b60008060408385031215612ffe57612ffd612b2e565b5b600061300c85828601612b81565b925050602061301d85828601612b81565b9150509250929050565b600060608201905061303c6000830186612d1c565b6130496020830185612d1c565b6130566040830184612a3f565b949350505050565b7f45524332303a2043616e6e6f74206368616e6765206e6f6e207a65726f20616c60008201527f6c6f77616e636500000000000000000000000000000000000000000000000000602082015250565b60006130ba602783612a74565b91506130c58261305e565b604082019050919050565b600060208201905081810360008301526130e9816130ad565b9050919050565b7f45524332303a204d757374206265207265636f766572792061646d696e000000600082015250565b6000613126601d83612a74565b9150613131826130f0565b602082019050919050565b6000602082019050818103600083015261315581613119565b9050919050565b7f416c726561647920736574000000000000000000000000000000000000000000600082015250565b6000613192600b83612a74565b915061319d8261315c565b602082019050919050565b600060208201905081810360008301526131c181613185565b9050919050565b7f43616e27742062652061206461746520696e2074686520706173740000000000600082015250565b60006131fe601b83612a74565b9150613209826131c8565b602082019050919050565b6000602082019050818103600083015261322d816131f1565b9050919050565b60006080820190506132496000830187612d1c565b6132566020830186612d1c565b6132636040830185612d1c565b6132706060830184612a3f565b95945050505050565b7f45524332303a207472616e7366657220616d6f756e742065786365656473206160008201527f6c6c6f77616e6365000000000000000000000000000000000000000000000000602082015250565b60006132d5602883612a74565b91506132e082613279565b604082019050919050565b60006020820190508181036000830152613304816132c8565b9050919050565b7f4e487b7100000000000000000000000000000000000000000000000000000000600052601160045260246000fd5b600061334582612a35565b915061335083612a35565b9250828210156133635761336261330b565b5b828203905092915050565b600061337982612a35565b915061338483612a35565b9250827fffffffffffffffffffffffffffffffffffffffffffffffffffffffffffffffff038211156133b9576133b861330b565b5b828201905092915050565b7f496e697469616c697a6174696f6e2068617665206e6f74207374617274656400600082015250565b60006133fa601f83612a74565b9150613405826133c4565b602082019050919050565b60006020820190508181036000830152613429816133ed565b9050919050565b7f416c726561647920636c61696d65640000000000000000000000000000000000600082015250565b6000613466600f83612a74565b915061347182613430565b602082019050919050565b6000602082019050818103600083015261349581613459565b9050919050565b7f5374696c6c206c6f636b65640000000000000000000000000000000000000000600082015250565b60006134d2600c83612a74565b91506134dd8261349c565b602082019050919050565b60006020820190508181036000830152613501816134c5565b9050919050565b7f45524332303a204f6e6c79206c6f73736c65737320636f6e7472616374000000600082015250565b600061353e601d83612a74565b915061354982613508565b602082019050919050565b6000602082019050818103600083015261356d81613531565b9050919050565b7f4e487b7100000000000000000000000000000000000000000000000000000000600052603260045260246000fd5b60006135ae82612a35565b91507fffffffffffffffffffffffffffffffffffffffffffffffffffffffffffffffff8214156135e1576135e061330b565b5b600182019050919050565b7f45524332303a2064656372656173656420616c6c6f77616e63652062656c6f7760008201527f207a65726f000000000000000000000000000000000000000000000000000000602082015250565b6000613648602583612a74565b9150613653826135ec565b604082019050919050565b600060208201905081810360008301526136778161363b565b9050919050565b7f45524332303a205475726e4f6666206e6f742070726f706f7365640000000000600082015250565b60006136b4601b83612a74565b91506136bf8261367e565b602082019050919050565b600060208201905081810360008301526136e3816136a7565b9050919050565b7f45524332303a2054696d65206c6f636b20696e2070726f677265737300000000600082015250565b6000613720601c83612a74565b915061372b826136ea565b602082019050919050565b6000602082019050818103600083015261374f81613713565b9050919050565b7f45524332303a204d7573742062652063616e6469746174650000000000000000600082015250565b600061378c601883612a74565b915061379782613756565b602082019050919050565b600060208201905081810360008301526137bb8161377f565b9050919050565b7f45524332303a20496e76616c6964206b65790000000000000000000000000000600082015250565b60006137f8601283612a74565b9150613803826137c2565b602082019050919050565b60006020820190508181036000830152613827816137eb565b9050919050565b7f45524332303a20617070726f76652066726f6d20746865207a65726f2061646460008201527f7265737300000000000000000000000000000000000000000000000000000000602082015250565b600061388a602483612a74565b91506138958261382e565b604082019050919050565b600060208201905081810360008301526138b98161387d565b9050919050565b7f45524332303a20617070726f766520746f20746865207a65726f20616464726560008201527f7373000000000000000000000000000000000000000000000000000000000000602082015250565b600061391c602283612a74565b9150613927826138c0565b604082019050919050565b6000602082019050818103600083015261394b8161390f565b9050919050565b7f45524332303a207472616e736665722066726f6d20746865207a65726f20616460008201527f6472657373000000000000000000000000000000000000000000000000000000602082015250565b60006139ae602583612a74565b91506139b982613952565b604082019050919050565b600060208201905081810360008301526139dd816139a1565b9050919050565b7f45524332303a207472616e7366657220746f20746865207a65726f206164647260008201527f6573730000000000000000000000000000000000000000000000000000000000602082015250565b6000613a40602383612a74565b9150613a4b826139e4565b604082019050919050565b60006020820190508181036000830152613a6f81613a33565b9050919050565b7f45524332303a207472616e7366657220616d6f756e742065786365656473206260008201527f616c616e63650000000000000000000000000000000000000000000000000000602082015250565b6000613ad2602683612a74565b9150613add82613a76565b604082019050919050565b60006020820190508181036000830152613b0181613ac5565b905091905056fea26469706673582212203d0c917cdc0a7e6ea732d8cc17b107443411237f202d51e56c6ead192cd43b1664736f6c634300080a0033",
  "immutableReferences": {},
  "source": "// SPDX-License-Identifier: MIT\npragma solidity ^0.8.0;\n\nimport \"@openzeppelin/contracts/token/ERC20/ERC20.sol\";\n\ninterface ILosslessController {\n  function beforeTransfer(\n    address sender,\n    address recipient,\n    uint256 amount\n  ) external;\n\n  function beforeTransferFrom(\n    address msgSender,\n    address sender,\n    address recipient,\n    uint256 amount\n  ) external;\n\n  function beforeApprove(\n    address sender,\n    address spender,\n    uint256 amount\n  ) external;\n\n  function beforeIncreaseAllowance(\n    address msgSender,\n    address spender,\n    uint256 addedValue\n  ) external;\n\n  function beforeDecreaseAllowance(\n    address msgSender,\n    address spender,\n    uint256 subtractedValue\n  ) external;\n\n  function afterApprove(\n    address sender,\n    address spender,\n    uint256 amount\n  ) external;\n\n  function afterTransfer(\n    address sender,\n    address recipient,\n    uint256 amount\n  ) external;\n\n  function afterTransferFrom(\n    address msgSender,\n    address sender,\n    address recipient,\n    uint256 amount\n  ) external;\n\n  function afterIncreaseAllowance(\n    address sender,\n    address spender,\n    uint256 addedValue\n  ) external;\n\n  function afterDecreaseAllowance(\n    address sender,\n    address spender,\n    uint256 subtractedValue\n  ) external;\n}\n\ncontract AAGToken is Context, IERC20 {\n  mapping(address => uint256) private _balances;\n  mapping(address => mapping(address => uint256)) private _allowances;\n\n  uint256 private _totalSupply;\n  string private constant NAME = \"AAG\";\n  string private constant SYMBOL = \"AAG\";\n\n  address public recoveryAdmin;\n  address private recoveryAdminCanditate;\n  bytes32 private recoveryAdminKeyHash;\n  address public admin;\n  uint256 public timelockPeriod;\n  uint256 public losslessTurnOffTimestamp;\n  bool public isLosslessTurnOffProposed;\n  bool public isLosslessOn = true;\n  ILosslessController private lossless;\n\n  event AdminChanged(address indexed previousAdmin, address indexed newAdmin);\n  event RecoveryAdminChangeProposed(address indexed candidate);\n  event RecoveryAdminChanged(address indexed previousAdmin, address indexed newAdmin);\n  event LosslessTurnOffProposed(uint256 turnOffDate);\n  event LosslessTurnedOff();\n  event LosslessTurnedOn();\n\n  // AAG Token vesting schedule\n  uint256 private constant _TOTAL_SUPPLY = 1000000000e18; // Initial supply 1 000 000 000\n  uint256 public tokenBirthDate = 0;\n\n  uint256 private constant STRATEGIC_BACKERS_POOL = 5000000e18; // Strategic Backers 0.5%,\n  uint256 private constant LIQUIDITY_POOL_TOKENS = 30000000e18; // Liquidity 3%\n  uint256 private constant PUBLIC_TOKENS = 27500000e18; // 2.75% / Public IDO\n  bool private initialPoolClaimed = false;\n\n  uint256 private constant TREASURY_TOKENS = 150000000e18; // 15% / Treasury / 40-day lockup\n  bool private treasuryTokensClaimed = false;\n\n  address private vestingContractAddress;\n  uint256 private constant TEAM_TOKENS = 247500000e18; // 24.75% 40-day lockup. Daily vesting over 4 years\n  uint256 private constant ADVISORS_TOKENS = 30000000e18; // 3% 40-day lockup. Daily vesting over 4 years\n  uint256 private constant PRIVATE_INVESTORS_TOKENS = 100000000e18; // 10% 40-day lockup. Daily vesting over 2 years\n  uint256 private constant COMMUNITY_ECOSYSTEM_TOKEN = 410000000e18; // 41% / Community & Ecosystem / Daily vesting over 4 years\n\n  bool private vestingTokensClaimed = false;\n\n  constructor(\n    address admin_,\n    address recoveryAdmin_,\n    uint256 timelockPeriod_,\n    address lossless_,\n    bool losslessOn\n  ) {\n    _mint(address(this), _TOTAL_SUPPLY);\n    admin = admin_;\n    recoveryAdmin = recoveryAdmin_;\n    timelockPeriod = timelockPeriod_;\n    isLosslessOn = losslessOn;\n    lossless = ILosslessController(lossless_);\n  }\n\n  // --- AAG Token functions ---\n\n  // AAG token unlock initialization\n\n  function setTokenBirthday(uint256 _tokenBirthDate) public onlyRecoveryAdmin {\n    require(tokenBirthDate == 0, \"Already set\");\n    require(_tokenBirthDate > block.timestamp, \"Can't be a date in the past\");\n    tokenBirthDate = _tokenBirthDate;\n  }\n\n  function getBirthdayDate() public view virtual returns (uint256) {\n    return tokenBirthDate;\n  }\n\n  // AAG unlocked tokens claiming\n\n  function claimInitialPoolTokens() public onlyRecoveryAdmin tokenBirthdayDefined {\n    require(initialPoolClaimed == false, \"Already claimed\");\n    initialPoolClaimed = true;\n    _transfer(address(this), admin, LIQUIDITY_POOL_TOKENS + STRATEGIC_BACKERS_POOL + PUBLIC_TOKENS);\n  }\n\n  function claimTreasuryTokens() public onlyRecoveryAdmin lockUpFinished tokenBirthdayDefined {\n    require(treasuryTokensClaimed == false, \"Already claimed\");\n    treasuryTokensClaimed = true;\n    _transfer(address(this), admin, TREASURY_TOKENS);\n  }\n\n  function claimVestingTokens() public onlyRecoveryAdmin lockUpFinished tokenBirthdayDefined {\n    require(vestingTokensClaimed == false, \"Already claimed\");\n    vestingTokensClaimed = true;\n    _transfer(address(this), admin, TEAM_TOKENS + ADVISORS_TOKENS + PRIVATE_INVESTORS_TOKENS + COMMUNITY_ECOSYSTEM_TOKEN);\n  }\n\n  // AAG vesting modifiers modifiers\n\n  modifier tokenBirthdayDefined() {\n    require(tokenBirthDate != 0, \"Initialization have not started\");\n    _;\n  }\n\n  modifier lockUpFinished() {\n    require(tokenBirthDate != 0, \"Initialization have not started\");\n    require(tokenBirthDate + 40 days < block.timestamp, \"Still locked\");\n    _;\n  }\n\n  // --- LOSSLESS modifiers ---\n\n  modifier lssAprove(address spender, uint256 amount) {\n    if (isLosslessOn) {\n      lossless.beforeApprove(_msgSender(), spender, amount);\n      _;\n      lossless.afterApprove(_msgSender(), spender, amount);\n    } else {\n      _;\n    }\n  }\n\n  modifier lssTransfer(address recipient, uint256 amount) {\n    if (isLosslessOn) {\n      lossless.beforeTransfer(_msgSender(), recipient, amount);\n      _;\n      lossless.afterTransfer(_msgSender(), recipient, amount);\n    } else {\n      _;\n    }\n  }\n\n  modifier lssTransferFrom(\n    address sender,\n    address recipient,\n    uint256 amount\n  ) {\n    if (isLosslessOn) {\n      lossless.beforeTransferFrom(_msgSender(), sender, recipient, amount);\n      _;\n      lossless.afterTransferFrom(_msgSender(), sender, recipient, amount);\n    } else {\n      _;\n    }\n  }\n\n  modifier lssIncreaseAllowance(address spender, uint256 addedValue) {\n    if (isLosslessOn) {\n      lossless.beforeIncreaseAllowance(_msgSender(), spender, addedValue);\n      _;\n      lossless.afterIncreaseAllowance(_msgSender(), spender, addedValue);\n    } else {\n      _;\n    }\n  }\n\n  modifier lssDecreaseAllowance(address spender, uint256 subtractedValue) {\n    if (isLosslessOn) {\n      lossless.beforeDecreaseAllowance(_msgSender(), spender, subtractedValue);\n      _;\n      lossless.afterDecreaseAllowance(_msgSender(), spender, subtractedValue);\n    } else {\n      _;\n    }\n  }\n\n  modifier onlyRecoveryAdmin() {\n    require(_msgSender() == recoveryAdmin, \"ERC20: Must be recovery admin\");\n    _;\n  }\n\n  // --- LOSSLESS management ---\n\n  function getAdmin() external view returns (address) {\n    return admin;\n  }\n\n  function transferOutBlacklistedFunds(address[] calldata from) external {\n    require(_msgSender() == address(lossless), \"ERC20: Only lossless contract\");\n    for (uint256 i = 0; i < from.length; i++) {\n      _transfer(from[i], address(lossless), balanceOf(from[i]));\n    }\n  }\n\n  function setLosslessAdmin(address newAdmin) public onlyRecoveryAdmin {\n    emit AdminChanged(admin, newAdmin);\n    admin = newAdmin;\n  }\n\n  function transferRecoveryAdminOwnership(address candidate, bytes32 keyHash) public onlyRecoveryAdmin {\n    recoveryAdminCanditate = candidate;\n    recoveryAdminKeyHash = keyHash;\n    emit RecoveryAdminChangeProposed(candidate);\n  }\n\n  function acceptRecoveryAdminOwnership(bytes memory key) external {\n    require(_msgSender() == recoveryAdminCanditate, \"ERC20: Must be canditate\");\n    require(keccak256(key) == recoveryAdminKeyHash, \"ERC20: Invalid key\");\n    emit RecoveryAdminChanged(recoveryAdmin, recoveryAdminCanditate);\n    recoveryAdmin = recoveryAdminCanditate;\n  }\n\n  function proposeLosslessTurnOff() public onlyRecoveryAdmin {\n    losslessTurnOffTimestamp = block.timestamp + timelockPeriod;\n    isLosslessTurnOffProposed = true;\n    emit LosslessTurnOffProposed(losslessTurnOffTimestamp);\n  }\n\n  function executeLosslessTurnOff() public onlyRecoveryAdmin {\n    require(isLosslessTurnOffProposed, \"ERC20: TurnOff not proposed\");\n    require(losslessTurnOffTimestamp <= block.timestamp, \"ERC20: Time lock in progress\");\n    isLosslessOn = false;\n    isLosslessTurnOffProposed = false;\n    emit LosslessTurnedOff();\n  }\n\n  function executeLosslessTurnOn() public onlyRecoveryAdmin {\n    isLosslessTurnOffProposed = false;\n    isLosslessOn = true;\n    emit LosslessTurnedOn();\n  }\n\n  // --- ERC20 methods ---\n\n  function name() public view virtual returns (string memory) {\n    return NAME;\n  }\n\n  function symbol() public view virtual returns (string memory) {\n    return SYMBOL;\n  }\n\n  function decimals() public view virtual returns (uint8) {\n    return 18;\n  }\n\n  function totalSupply() public view virtual override returns (uint256) {\n    return _totalSupply;\n  }\n\n  function balanceOf(address account) public view virtual override returns (uint256) {\n    return _balances[account];\n  }\n\n  function transfer(address recipient, uint256 amount) public virtual override lssTransfer(recipient, amount) returns (bool) {\n    _transfer(_msgSender(), recipient, amount);\n    return true;\n  }\n\n  function allowance(address owner, address spender) public view virtual override returns (uint256) {\n    return _allowances[owner][spender];\n  }\n\n  function approve(address spender, uint256 amount) public virtual override lssAprove(spender, amount) returns (bool) {\n    require((amount == 0) || (_allowances[_msgSender()][spender] == 0), \"ERC20: Cannot change non zero allowance\");\n    _approve(_msgSender(), spender, amount);\n    return true;\n  }\n\n  function transferFrom(\n    address sender,\n    address recipient,\n    uint256 amount\n  ) public virtual override lssTransferFrom(sender, recipient, amount) returns (bool) {\n    _transfer(sender, recipient, amount);\n\n    uint256 currentAllowance = _allowances[sender][_msgSender()];\n    require(currentAllowance >= amount, \"ERC20: transfer amount exceeds allowance\");\n    _approve(sender, _msgSender(), currentAllowance - amount);\n\n    return true;\n  }\n\n  function increaseAllowance(address spender, uint256 addedValue) public virtual lssIncreaseAllowance(spender, addedValue) returns (bool) {\n    _approve(_msgSender(), spender, _allowances[_msgSender()][spender] + addedValue);\n    return true;\n  }\n\n  function decreaseAllowance(address spender, uint256 subtractedValue) public virtual lssDecreaseAllowance(spender, subtractedValue) returns (bool) {\n    uint256 currentAllowance = _allowances[_msgSender()][spender];\n    require(currentAllowance >= subtractedValue, \"ERC20: decreased allowance below zero\");\n    _approve(_msgSender(), spender, currentAllowance - subtractedValue);\n\n    return true;\n  }\n\n  function _transfer(\n    address sender,\n    address recipient,\n    uint256 amount\n  ) internal virtual {\n    require(sender != address(0), \"ERC20: transfer from the zero address\");\n    require(recipient != address(0), \"ERC20: transfer to the zero address\");\n\n    uint256 senderBalance = _balances[sender];\n    require(senderBalance >= amount, \"ERC20: transfer amount exceeds balance\");\n    _balances[sender] = senderBalance - amount;\n    _balances[recipient] += amount;\n\n    emit Transfer(sender, recipient, amount);\n  }\n\n  function _mint(address account, uint256 amount) internal virtual {\n    require(account != address(0), \"ERC20: mint to the zero address\");\n\n    _totalSupply += amount;\n    _balances[account] += amount;\n    emit Transfer(address(0), account, amount);\n  }\n\n  function _approve(\n    address owner,\n    address spender,\n    uint256 amount\n  ) internal virtual {\n    require(owner != address(0), \"ERC20: approve from the zero address\");\n    require(spender != address(0), \"ERC20: approve to the zero address\");\n\n    _allowances[owner][spender] = amount;\n    emit Approval(owner, spender, amount);\n  }\n}\n",
  "sourcePath": "/Users/mariussilenskis/AAGDevelopment/aag-token/contracts/AAGToken.sol",
  "compiler": {
    "name": "solc",
    "version": "0.8.10+commit.fc410830.Emscripten.clang"
  },
  "schemaVersion": "3.4.3",
  "updatedAt": "2021-11-17T23:44:31.618Z",
  "networkType": "ethereum",
  "devdoc": {
    "kind": "dev",
    "methods": {
      "allowance(address,address)": {
        "details": "Returns the remaining number of tokens that `spender` will be allowed to spend on behalf of `owner` through {transferFrom}. This is zero by default. This value changes when {approve} or {transferFrom} are called."
      },
      "approve(address,uint256)": {
        "details": "Sets `amount` as the allowance of `spender` over the caller's tokens. Returns a boolean value indicating whether the operation succeeded. IMPORTANT: Beware that changing an allowance with this method brings the risk that someone may use both the old and the new allowance by unfortunate transaction ordering. One possible solution to mitigate this race condition is to first reduce the spender's allowance to 0 and set the desired value afterwards: https://github.com/ethereum/EIPs/issues/20#issuecomment-263524729 Emits an {Approval} event."
      },
      "balanceOf(address)": {
        "details": "Returns the amount of tokens owned by `account`."
      },
      "totalSupply()": {
        "details": "Returns the amount of tokens in existence."
      },
      "transfer(address,uint256)": {
        "details": "Moves `amount` tokens from the caller's account to `recipient`. Returns a boolean value indicating whether the operation succeeded. Emits a {Transfer} event."
      },
      "transferFrom(address,address,uint256)": {
        "details": "Moves `amount` tokens from `sender` to `recipient` using the allowance mechanism. `amount` is then deducted from the caller's allowance. Returns a boolean value indicating whether the operation succeeded. Emits a {Transfer} event."
      }
    },
    "version": 1
  },
  "userdoc": {
    "kind": "user",
    "methods": {},
    "version": 1
  }
}