{
  "contractName": "AAGVestingContract",
  "abi": [
    {
      "inputs": [
        {
          "internalType": "contract IERC20",
          "name": "_token",
          "type": "address"
        },
        {
          "internalType": "address",
          "name": "_owner",
          "type": "address"
        }
      ],
      "stateMutability": "nonpayable",
      "type": "constructor"
    },
    {
      "anonymous": false,
      "inputs": [
        {
          "indexed": true,
          "internalType": "address",
          "name": "previousOwner",
          "type": "address"
        },
        {
          "indexed": true,
          "internalType": "address",
          "name": "newOwner",
          "type": "address"
        }
      ],
      "name": "OwnershipTransferred",
      "type": "event"
    },
    {
      "anonymous": false,
      "inputs": [
        {
          "indexed": true,
          "internalType": "address",
          "name": "_beneficiary",
          "type": "address"
        },
        {
          "indexed": true,
          "internalType": "address",
          "name": "_cancelledBy",
          "type": "address"
        },
        {
          "indexed": false,
          "internalType": "uint256",
          "name": "_remainingBalance",
          "type": "uint256"
        },
        {
          "indexed": false,
          "internalType": "uint256",
          "name": "_canceledTimestamp",
          "type": "uint256"
        }
      ],
      "name": "ScheduleCancelled",
      "type": "event"
    },
    {
      "anonymous": false,
      "inputs": [
        {
          "indexed": true,
          "internalType": "address",
          "name": "_beneficiary",
          "type": "address"
        },
        {
          "indexed": true,
          "internalType": "uint256",
          "name": "_amount",
          "type": "uint256"
        },
        {
          "indexed": true,
          "internalType": "uint256",
          "name": "_startTimestamp",
          "type": "uint256"
        },
        {
          "indexed": false,
          "internalType": "uint256",
          "name": "_duration",
          "type": "uint256"
        }
      ],
      "name": "ScheduleCreated",
      "type": "event"
    },
    {
      "anonymous": false,
      "inputs": [
        {
          "indexed": true,
          "internalType": "address",
          "name": "_beneficiary",
          "type": "address"
        },
        {
          "indexed": true,
          "internalType": "uint256",
          "name": "_amount",
          "type": "uint256"
        },
        {
          "indexed": true,
          "internalType": "uint256",
          "name": "_time",
          "type": "uint256"
        }
      ],
      "name": "Withdraw",
      "type": "event"
    },
    {
      "inputs": [],
      "name": "owner",
      "outputs": [
        {
          "internalType": "address",
          "name": "",
          "type": "address"
        }
      ],
      "stateMutability": "view",
      "type": "function",
      "constant": true
    },
    {
      "inputs": [],
      "name": "renounceOwnership",
      "outputs": [],
      "stateMutability": "nonpayable",
      "type": "function"
    },
    {
      "inputs": [],
      "name": "token",
      "outputs": [
        {
          "internalType": "contract IERC20",
          "name": "",
          "type": "address"
        }
      ],
      "stateMutability": "view",
      "type": "function",
      "constant": true
    },
    {
      "inputs": [
        {
          "internalType": "address",
          "name": "newOwner",
          "type": "address"
        }
      ],
      "name": "transferOwnership",
      "outputs": [],
      "stateMutability": "nonpayable",
      "type": "function"
    },
    {
      "inputs": [
        {
          "internalType": "address",
          "name": "_beneficiary",
          "type": "address"
        },
        {
          "internalType": "uint256",
          "name": "_amount",
          "type": "uint256"
        },
        {
          "internalType": "uint256",
          "name": "_startTimestamp",
          "type": "uint256"
        },
        {
          "internalType": "uint256",
          "name": "_durationInDays",
          "type": "uint256"
        }
      ],
      "name": "createVestingSchedule",
      "outputs": [],
      "stateMutability": "nonpayable",
      "type": "function"
    },
    {
      "inputs": [
        {
          "internalType": "address",
          "name": "_beneficiary",
          "type": "address"
        }
      ],
      "name": "cancelVestingForBeneficiary",
      "outputs": [],
      "stateMutability": "nonpayable",
      "type": "function"
    },
    {
      "inputs": [],
      "name": "emergencyWithdrawAllTokens",
      "outputs": [],
      "stateMutability": "nonpayable",
      "type": "function"
    },
    {
      "inputs": [],
      "name": "withdraw",
      "outputs": [],
      "stateMutability": "nonpayable",
      "type": "function"
    },
    {
      "inputs": [],
      "name": "tokenBalance",
      "outputs": [
        {
          "internalType": "uint256",
          "name": "",
          "type": "uint256"
        }
      ],
      "stateMutability": "view",
      "type": "function",
      "constant": true
    },
    {
      "inputs": [
        {
          "internalType": "address",
          "name": "_beneficiary",
          "type": "address"
        }
      ],
      "name": "vestingScheduleForBeneficiary",
      "outputs": [
        {
          "internalType": "uint256",
          "name": "_startTimestamp",
          "type": "uint256"
        },
        {
          "internalType": "uint256",
          "name": "_endTimestamp",
          "type": "uint256"
        },
        {
          "internalType": "uint256",
          "name": "_canceledTimestamp",
          "type": "uint256"
        },
        {
          "internalType": "uint256",
          "name": "_amount",
          "type": "uint256"
        },
        {
          "internalType": "uint256",
          "name": "_totalDrawn",
          "type": "uint256"
        },
        {
          "internalType": "uint256",
          "name": "_lastDrawnAt",
          "type": "uint256"
        },
        {
          "internalType": "uint256",
          "name": "_withdrawRate",
          "type": "uint256"
        },
        {
          "internalType": "uint256",
          "name": "_remainingBalance",
          "type": "uint256"
        }
      ],
      "stateMutability": "view",
      "type": "function",
      "constant": true
    },
    {
      "inputs": [
        {
          "internalType": "address",
          "name": "_beneficiary",
          "type": "address"
        }
      ],
      "name": "getAvailableWithdrawAmountForAddress",
      "outputs": [
        {
          "internalType": "uint256",
          "name": "_amount",
          "type": "uint256"
        }
      ],
      "stateMutability": "view",
      "type": "function",
      "constant": true
    }
  ],
  "bytecode": "0x60806040523480156200001157600080fd5b506040516200259738038062002597833981810160405281019062000037919062000375565b60016000819055506200005f62000053620000b960201b60201c565b620000c160201b60201c565b81600360006101000a81548173ffffffffffffffffffffffffffffffffffffffff021916908373ffffffffffffffffffffffffffffffffffffffff160217905550620000b1816200018760201b60201c565b5050620004d7565b600033905090565b6000600160009054906101000a900473ffffffffffffffffffffffffffffffffffffffff16905081600160006101000a81548173ffffffffffffffffffffffffffffffffffffffff021916908373ffffffffffffffffffffffffffffffffffffffff1602179055508173ffffffffffffffffffffffffffffffffffffffff168173ffffffffffffffffffffffffffffffffffffffff167f8be0079c531659141344cd1fd0a4f28419497f9722a3daafe3b4186f6b6457e060405160405180910390a35050565b62000197620000b960201b60201c565b73ffffffffffffffffffffffffffffffffffffffff16620001bd6200029c60201b60201c565b73ffffffffffffffffffffffffffffffffffffffff161462000216576040517f08c379a00000000000000000000000000000000000000000000000000000000081526004016200020d906200041d565b60405180910390fd5b600073ffffffffffffffffffffffffffffffffffffffff168173ffffffffffffffffffffffffffffffffffffffff160362000288576040517f08c379a00000000000000000000000000000000000000000000000000000000081526004016200027f90620004b5565b60405180910390fd5b6200029981620000c160201b60201c565b50565b6000600160009054906101000a900473ffffffffffffffffffffffffffffffffffffffff16905090565b600080fd5b600073ffffffffffffffffffffffffffffffffffffffff82169050919050565b6000620002f882620002cb565b9050919050565b60006200030c82620002eb565b9050919050565b6200031e81620002ff565b81146200032a57600080fd5b50565b6000815190506200033e8162000313565b92915050565b6200034f81620002eb565b81146200035b57600080fd5b50565b6000815190506200036f8162000344565b92915050565b600080604083850312156200038f576200038e620002c6565b5b60006200039f858286016200032d565b9250506020620003b2858286016200035e565b9150509250929050565b600082825260208201905092915050565b7f4f776e61626c653a2063616c6c6572206973206e6f7420746865206f776e6572600082015250565b600062000405602083620003bc565b91506200041282620003cd565b602082019050919050565b600060208201905081810360008301526200043881620003f6565b9050919050565b7f4f776e61626c653a206e6577206f776e657220697320746865207a65726f206160008201527f6464726573730000000000000000000000000000000000000000000000000000602082015250565b60006200049d602683620003bc565b9150620004aa826200043f565b604082019050919050565b60006020820190508181036000830152620004d0816200048e565b9050919050565b6120b080620004e76000396000f3fe608060405234801561001057600080fd5b50600436106100a95760003560e01c80638da5cb5b116100715780638da5cb5b146101185780639e1a4d1914610136578063c570b83514610154578063efacabf01461018b578063f2fde38b146101a7578063fc0c546a146101c3576100a9565b8063324d2f68146100ae5780633ccfd60b146100de5780633f4e8e80146100e85780635624dfc614610104578063715018a61461010e575b600080fd5b6100c860048036038101906100c39190611590565b6101e1565b6040516100d591906115d6565b60405180910390f35b6100e6610287565b005b61010260048036038101906100fd919061161d565b6105ef565b005b61010c610a8f565b005b610116610c94565b005b610120610d1c565b60405161012d9190611693565b60405180910390f35b61013e610d46565b60405161014b91906115d6565b60405180910390f35b61016e60048036038101906101699190611590565b610de9565b6040516101829897969594939291906116ae565b60405180910390f35b6101a560048036038101906101a09190611590565b610edc565b005b6101c160048036038101906101bc9190611590565b61125d565b005b6101cb611354565b6040516101d8919061178b565b60405180910390f35b600080600260008473ffffffffffffffffffffffffffffffffffffffff1673ffffffffffffffffffffffffffffffffffffffff1681526020019081526020016000206040518060e0016040529081600082015481526020016001820154815260200160028201548152602001600382015481526020016004820154815260200160058201548152602001600682015481525050905061027f8161137a565b915050919050565b6002600054036102cc576040517f08c379a00000000000000000000000000000000000000000000000000000000081526004016102c390611803565b60405180910390fd5b60026000819055506000600260006102e261145f565b73ffffffffffffffffffffffffffffffffffffffff1673ffffffffffffffffffffffffffffffffffffffff1681526020019081526020016000206040518060e0016040529081600082015481526020016001820154815260200160028201548152602001600382015481526020016004820154815260200160058201548152602001600682015481525050905060008160600151116103b6576040517f08c379a00000000000000000000000000000000000000000000000000000000081526004016103ad90611895565b60405180910390fd5b60006103c18261137a565b905060008111610406576040517f08c379a00000000000000000000000000000000000000000000000000000000081526004016103fd90611901565b60405180910390fd5b426002600061041361145f565b73ffffffffffffffffffffffffffffffffffffffff1673ffffffffffffffffffffffffffffffffffffffff168152602001908152602001600020600501819055508082608001516104649190611950565b6002600061047061145f565b73ffffffffffffffffffffffffffffffffffffffff1673ffffffffffffffffffffffffffffffffffffffff16815260200190815260200160002060040181905550600360009054906101000a900473ffffffffffffffffffffffffffffffffffffffff1673ffffffffffffffffffffffffffffffffffffffff1663a9059cbb6104f761145f565b836040518363ffffffff1660e01b8152600401610515929190611984565b6020604051808303816000875af1158015610534573d6000803e3d6000fd5b505050506040513d601f19601f8201168201806040525081019061055891906119e5565b610597576040517f08c379a000000000000000000000000000000000000000000000000000000000815260040161058e90611a5e565b60405180910390fd5b42816105a161145f565b73ffffffffffffffffffffffffffffffffffffffff167ff279e6a1f5e320cca91135676d9cb6e44ca8a08c0b88342bcdb1144f6511b56860405160405180910390a450506001600081905550565b6105f761145f565b73ffffffffffffffffffffffffffffffffffffffff16610615610d1c565b73ffffffffffffffffffffffffffffffffffffffff161461066b576040517f08c379a000000000000000000000000000000000000000000000000000000000815260040161066290611aca565b60405180910390fd5b600073ffffffffffffffffffffffffffffffffffffffff168473ffffffffffffffffffffffffffffffffffffffff16036106da576040517f08c379a00000000000000000000000000000000000000000000000000000000081526004016106d190611b36565b60405180910390fd5b6000831161071d576040517f08c379a000000000000000000000000000000000000000000000000000000000815260040161071490611ba2565b60405180910390fd5b60008111610760576040517f08c379a000000000000000000000000000000000000000000000000000000000815260040161075790611c0e565b60405180910390fd5b4282116107a2576040517f08c379a000000000000000000000000000000000000000000000000000000000815260040161079990611c7a565b60405180910390fd5b6000600260008673ffffffffffffffffffffffffffffffffffffffff1673ffffffffffffffffffffffffffffffffffffffff1681526020019081526020016000206003015414610827576040517f08c379a000000000000000000000000000000000000000000000000000000000815260040161081e90611ce6565b60405180910390fd5b600062015180826108389190611d06565b90506040518060e0016040528084815260200182856108579190611950565b815260200160008152602001858152602001600081526020016000815260200182866108839190611d77565b815250600260008773ffffffffffffffffffffffffffffffffffffffff1673ffffffffffffffffffffffffffffffffffffffff168152602001908152602001600020600082015181600001556020820151816001015560408201518160020155606082015181600301556080820151816004015560a0820151816005015560c08201518160060155905050600260008673ffffffffffffffffffffffffffffffffffffffff1673ffffffffffffffffffffffffffffffffffffffff16815260200190815260200160002060000154848673ffffffffffffffffffffffffffffffffffffffff167f5ab0cb75fe24f04dbfe14b847f8579bc91baa153ee5b2758fcfa59f33675b1628560405161099891906115d6565b60405180910390a4600360009054906101000a900473ffffffffffffffffffffffffffffffffffffffff1673ffffffffffffffffffffffffffffffffffffffff166323b872dd6109e661145f565b30876040518463ffffffff1660e01b8152600401610a0693929190611da8565b6020604051808303816000875af1158015610a25573d6000803e3d6000fd5b505050506040513d601f19601f82011682018060405250810190610a4991906119e5565b610a88576040517f08c379a0000000000000000000000000000000000000000000000000000000008152600401610a7f90611e51565b60405180910390fd5b5050505050565b610a9761145f565b73ffffffffffffffffffffffffffffffffffffffff16610ab5610d1c565b73ffffffffffffffffffffffffffffffffffffffff1614610b0b576040517f08c379a0000000000000000000000000000000000000000000000000000000008152600401610b0290611aca565b60405180910390fd5b6000600360009054906101000a900473ffffffffffffffffffffffffffffffffffffffff1673ffffffffffffffffffffffffffffffffffffffff166370a08231306040518263ffffffff1660e01b8152600401610b689190611693565b602060405180830381865afa158015610b85573d6000803e3d6000fd5b505050506040513d601f19601f82011682018060405250810190610ba99190611e86565b9050600360009054906101000a900473ffffffffffffffffffffffffffffffffffffffff1673ffffffffffffffffffffffffffffffffffffffff1663a9059cbb610bf1610d1c565b836040518363ffffffff1660e01b8152600401610c0f929190611984565b6020604051808303816000875af1158015610c2e573d6000803e3d6000fd5b505050506040513d601f19601f82011682018060405250810190610c5291906119e5565b610c91576040517f08c379a0000000000000000000000000000000000000000000000000000000008152600401610c8890611a5e565b60405180910390fd5b50565b610c9c61145f565b73ffffffffffffffffffffffffffffffffffffffff16610cba610d1c565b73ffffffffffffffffffffffffffffffffffffffff1614610d10576040517f08c379a0000000000000000000000000000000000000000000000000000000008152600401610d0790611aca565b60405180910390fd5b610d1a6000611467565b565b6000600160009054906101000a900473ffffffffffffffffffffffffffffffffffffffff16905090565b6000600360009054906101000a900473ffffffffffffffffffffffffffffffffffffffff1673ffffffffffffffffffffffffffffffffffffffff166370a08231306040518263ffffffff1660e01b8152600401610da39190611693565b602060405180830381865afa158015610dc0573d6000803e3d6000fd5b505050506040513d601f19601f82011682018060405250810190610de49190611e86565b905090565b6000806000806000806000806000600260008b73ffffffffffffffffffffffffffffffffffffffff1673ffffffffffffffffffffffffffffffffffffffff1681526020019081526020016000206040518060e00160405290816000820154815260200160018201548152602001600282015481526020016003820154815260200160048201548152602001600582015481526020016006820154815250509050806000015181602001518260400151836060015184608001518560a001518660c0015187608001518860600151610ec09190611eb3565b9850985098509850985098509850985050919395975091939597565b610ee461145f565b73ffffffffffffffffffffffffffffffffffffffff16610f02610d1c565b73ffffffffffffffffffffffffffffffffffffffff1614610f58576040517f08c379a0000000000000000000000000000000000000000000000000000000008152600401610f4f90611aca565b60405180910390fd5b6000600260008373ffffffffffffffffffffffffffffffffffffffff1673ffffffffffffffffffffffffffffffffffffffff16815260200190815260200160002090506000816002015414610fe2576040517f08c379a0000000000000000000000000000000000000000000000000000000008152600401610fd990611f33565b60405180910390fd5b42816001015411611028576040517f08c379a000000000000000000000000000000000000000000000000000000000815260040161101f90611f9f565b60405180910390fd5b6000611084826040518060e001604052908160008201548152602001600182015481526020016002820154815260200160038201548152602001600482015481526020016005820154815260200160068201548152505061137a565b905042826002018190555060008260040154826110a19190611950565b905060008184600301546110b59190611eb3565b9050818460030181905550600360009054906101000a900473ffffffffffffffffffffffffffffffffffffffff1673ffffffffffffffffffffffffffffffffffffffff1663a9059cbb611106610d1c565b836040518363ffffffff1660e01b8152600401611124929190611984565b6020604051808303816000875af1158015611143573d6000803e3d6000fd5b505050506040513d601f19601f8201168201806040525081019061116791906119e5565b6111a6576040517f08c379a000000000000000000000000000000000000000000000000000000000815260040161119d90611a5e565b60405180910390fd5b6111ae61145f565b73ffffffffffffffffffffffffffffffffffffffff168573ffffffffffffffffffffffffffffffffffffffff167fbc2075d9ef107583b6d08c65185a920ae48465167bcc8d1a42829d206a894d1a85600260008a73ffffffffffffffffffffffffffffffffffffffff1673ffffffffffffffffffffffffffffffffffffffff1681526020019081526020016000206002015460405161124e929190611fbf565b60405180910390a35050505050565b61126561145f565b73ffffffffffffffffffffffffffffffffffffffff16611283610d1c565b73ffffffffffffffffffffffffffffffffffffffff16146112d9576040517f08c379a00000000000000000000000000000000000000000000000000000000081526004016112d090611aca565b60405180910390fd5b600073ffffffffffffffffffffffffffffffffffffffff168173ffffffffffffffffffffffffffffffffffffffff1603611348576040517f08c379a000000000000000000000000000000000000000000000000000000000815260040161133f9061205a565b60405180910390fd5b61135181611467565b50565b600360009054906101000a900473ffffffffffffffffffffffffffffffffffffffff1681565b600081600001514211611390576000905061145a565b8160200151421180156113a7575060008260400151145b156113c757816080015182606001516113c09190611eb3565b905061145a565b8160400151421180156113df57506000826040015114155b15611423576000826000015183604001516113fa9190611eb3565b905082608001518360c00151826114119190611d06565b61141b9190611eb3565b91505061145a565b60008260000151426114359190611eb3565b905082608001518360c001518261144c9190611d06565b6114569190611eb3565b9150505b919050565b600033905090565b6000600160009054906101000a900473ffffffffffffffffffffffffffffffffffffffff16905081600160006101000a81548173ffffffffffffffffffffffffffffffffffffffff021916908373ffffffffffffffffffffffffffffffffffffffff1602179055508173ffffffffffffffffffffffffffffffffffffffff168173ffffffffffffffffffffffffffffffffffffffff167f8be0079c531659141344cd1fd0a4f28419497f9722a3daafe3b4186f6b6457e060405160405180910390a35050565b600080fd5b600073ffffffffffffffffffffffffffffffffffffffff82169050919050565b600061155d82611532565b9050919050565b61156d81611552565b811461157857600080fd5b50565b60008135905061158a81611564565b92915050565b6000602082840312156115a6576115a561152d565b5b60006115b48482850161157b565b91505092915050565b6000819050919050565b6115d0816115bd565b82525050565b60006020820190506115eb60008301846115c7565b92915050565b6115fa816115bd565b811461160557600080fd5b50565b600081359050611617816115f1565b92915050565b600080600080608085870312156116375761163661152d565b5b60006116458782880161157b565b945050602061165687828801611608565b935050604061166787828801611608565b925050606061167887828801611608565b91505092959194509250565b61168d81611552565b82525050565b60006020820190506116a86000830184611684565b92915050565b6000610100820190506116c4600083018b6115c7565b6116d1602083018a6115c7565b6116de60408301896115c7565b6116eb60608301886115c7565b6116f860808301876115c7565b61170560a08301866115c7565b61171260c08301856115c7565b61171f60e08301846115c7565b9998505050505050505050565b6000819050919050565b600061175161174c61174784611532565b61172c565b611532565b9050919050565b600061176382611736565b9050919050565b600061177582611758565b9050919050565b6117858161176a565b82525050565b60006020820190506117a0600083018461177c565b92915050565b600082825260208201905092915050565b7f5265656e7472616e637947756172643a207265656e7472616e742063616c6c00600082015250565b60006117ed601f836117a6565b91506117f8826117b7565b602082019050919050565b6000602082019050818103600083015261181c816117e0565b9050919050565b7f5468657265206973206e6f207363686564756c652063757272656e746c79206960008201527f6e20666c69676874000000000000000000000000000000000000000000000000602082015250565b600061187f6028836117a6565b915061188a82611823565b604082019050919050565b600060208201905081810360008301526118ae81611872565b9050919050565b7f4e6f7468696e6720746f20776974686472617700000000000000000000000000600082015250565b60006118eb6013836117a6565b91506118f6826118b5565b602082019050919050565b6000602082019050818103600083015261191a816118de565b9050919050565b7f4e487b7100000000000000000000000000000000000000000000000000000000600052601160045260246000fd5b600061195b826115bd565b9150611966836115bd565b925082820190508082111561197e5761197d611921565b5b92915050565b60006040820190506119996000830185611684565b6119a660208301846115c7565b9392505050565b60008115159050919050565b6119c2816119ad565b81146119cd57600080fd5b50565b6000815190506119df816119b9565b92915050565b6000602082840312156119fb576119fa61152d565b5b6000611a09848285016119d0565b91505092915050565b7f556e61626c6520746f207472616e7366657220746f6b656e7300000000000000600082015250565b6000611a486019836117a6565b9150611a5382611a12565b602082019050919050565b60006020820190508181036000830152611a7781611a3b565b9050919050565b7f4f776e61626c653a2063616c6c6572206973206e6f7420746865206f776e6572600082015250565b6000611ab46020836117a6565b9150611abf82611a7e565b602082019050919050565b60006020820190508181036000830152611ae381611aa7565b9050919050565b7f42656e65666963696172792063616e6e6f7420626520656d7074790000000000600082015250565b6000611b20601b836117a6565b9150611b2b82611aea565b602082019050919050565b60006020820190508181036000830152611b4f81611b13565b9050919050565b7f416d6f756e742063616e6e6f7420626520656d70747900000000000000000000600082015250565b6000611b8c6016836117a6565b9150611b9782611b56565b602082019050919050565b60006020820190508181036000830152611bbb81611b7f565b9050919050565b7f4475726174696f6e2063616e6e6f7420626520656d7074790000000000000000600082015250565b6000611bf86018836117a6565b9150611c0382611bc2565b602082019050919050565b60006020820190508181036000830152611c2781611beb565b9050919050565b7f43616e206e6f742073657420746865206461746520696e207468652070617374600082015250565b6000611c646020836117a6565b9150611c6f82611c2e565b602082019050919050565b60006020820190508181036000830152611c9381611c57565b9050919050565b7f5363686564756c6520616c726561647920657869737473000000000000000000600082015250565b6000611cd06017836117a6565b9150611cdb82611c9a565b602082019050919050565b60006020820190508181036000830152611cff81611cc3565b9050919050565b6000611d11826115bd565b9150611d1c836115bd565b9250828202611d2a816115bd565b91508282048414831517611d4157611d40611921565b5b5092915050565b7f4e487b7100000000000000000000000000000000000000000000000000000000600052601260045260246000fd5b6000611d82826115bd565b9150611d8d836115bd565b925082611d9d57611d9c611d48565b5b828204905092915050565b6000606082019050611dbd6000830186611684565b611dca6020830185611684565b611dd760408301846115c7565b949350505050565b7f556e61626c6520746f207472616e7366657220746f6b656e7320746f2076657360008201527f74696e6720636f6e747261637400000000000000000000000000000000000000602082015250565b6000611e3b602d836117a6565b9150611e4682611ddf565b604082019050919050565b60006020820190508181036000830152611e6a81611e2e565b9050919050565b600081519050611e80816115f1565b92915050565b600060208284031215611e9c57611e9b61152d565b5b6000611eaa84828501611e71565b91505092915050565b6000611ebe826115bd565b9150611ec9836115bd565b9250828203905081811115611ee157611ee0611921565b5b92915050565b7f43616e206e6f742063616e63656c207477696365000000000000000000000000600082015250565b6000611f1d6014836117a6565b9150611f2882611ee7565b602082019050919050565b60006020820190508181036000830152611f4c81611f10565b9050919050565b7f56657374696e6720697320616c72656164792066696e69736865640000000000600082015250565b6000611f89601b836117a6565b9150611f9482611f53565b602082019050919050565b60006020820190508181036000830152611fb881611f7c565b9050919050565b6000604082019050611fd460008301856115c7565b611fe160208301846115c7565b9392505050565b7f4f776e61626c653a206e6577206f776e657220697320746865207a65726f206160008201527f6464726573730000000000000000000000000000000000000000000000000000602082015250565b60006120446026836117a6565b915061204f82611fe8565b604082019050919050565b6000602082019050818103600083015261207381612037565b905091905056fea2646970667358221220ba7b5e36d06d1bb0c815a2a0b619746f1aca6255ac13cf470576bcaf55bd541e64736f6c63430008130033",
  "immutableReferences": {},
  "source": "// SPDX-License-Identifier: MIT\n\npragma solidity ^0.8.0;\n\nimport \"@openzeppelin/contracts/token/ERC20/ERC20.sol\";\nimport \"@openzeppelin/contracts/security/ReentrancyGuard.sol\";\nimport \"@openzeppelin/contracts/access/Ownable.sol\";\n\ncontract AAGVestingContract is ReentrancyGuard, Context, Ownable {\n  event ScheduleCreated(address indexed _beneficiary, uint256 indexed _amount, uint256 indexed _startTimestamp, uint256 _duration);\n\n  event ScheduleCancelled(address indexed _beneficiary, address indexed _cancelledBy, uint256 _remainingBalance, uint256 _canceledTimestamp);\n\n  event Withdraw(address indexed _beneficiary, uint256 indexed _amount, uint256 indexed _time);\n\n  struct Schedule {\n    uint256 startTimestamp;\n    uint256 endTimestamp;\n    uint256 canceledTimestamp;\n    uint256 amount;\n    uint256 totalDrawn;\n    uint256 lastDrawnAt;\n    uint256 withdrawRate;\n  }\n\n  // Vested address to its schedule\n  mapping(address => Schedule) private vestingSchedule;\n\n  // AAG token contract\n  IERC20 public token;\n  uint256 private constant ONE_DAY_IN_SECONDS = 1 days;\n\n  constructor(IERC20 _token, address _owner) {\n    token = _token;\n    transferOwnership(_owner);\n  }\n\n  // Create vesting schedule\n  function createVestingSchedule(\n    address _beneficiary,\n    uint256 _amount,\n    uint256 _startTimestamp,\n    uint256 _durationInDays\n  ) external onlyOwner {\n    require(_beneficiary != address(0), \"Beneficiary cannot be empty\");\n    require(_amount > 0, \"Amount cannot be empty\");\n    require(_durationInDays > 0, \"Duration cannot be empty\");\n    require(_startTimestamp > block.timestamp, \"Can not set the date in the past\");\n    // Ensure one per address\n    require(vestingSchedule[_beneficiary].amount == 0, \"Schedule already exists\");\n\n    // Create schedule\n    uint256 _durationInSecs = _durationInDays * ONE_DAY_IN_SECONDS;\n    vestingSchedule[_beneficiary] = Schedule({\n      startTimestamp: _startTimestamp,\n      endTimestamp: _startTimestamp + _durationInSecs,\n      canceledTimestamp: 0,\n      amount: _amount,\n      totalDrawn: 0,\n      lastDrawnAt: 0,\n      withdrawRate: _amount / _durationInSecs\n    });\n\n    emit ScheduleCreated(_beneficiary, _amount, vestingSchedule[_beneficiary].startTimestamp, _durationInDays);\n\n    // Transfer tokens in the vesting contract on behalf of the beneficiary\n    require(token.transferFrom(_msgSender(), address(this), _amount), \"Unable to transfer tokens to vesting contract\");\n  }\n\n  // Cancel vesting schedule for beneficiary\n  function cancelVestingForBeneficiary(address _beneficiary) external onlyOwner {\n    Schedule storage item = vestingSchedule[_beneficiary];\n    require(item.canceledTimestamp == 0, \"Can not cancel twice\");\n    require(item.endTimestamp > block.timestamp, \"Vesting is already finished\");\n\n    uint256 availableAmount = getAvailableWithdrawAmountForSchedule(item);\n\n    item.canceledTimestamp = block.timestamp;\n\n    uint256 finalAmountForBeneficiary = availableAmount + item.totalDrawn;\n    uint256 amountToRetrieveToOwner = item.amount - finalAmountForBeneficiary;\n\n    // Set final amount for beneficiary\n    item.amount = finalAmountForBeneficiary;\n\n    // Return unvested tokens to owner\n    require(token.transfer(owner(), amountToRetrieveToOwner), \"Unable to transfer tokens\");\n\n    emit ScheduleCancelled(_beneficiary, _msgSender(), availableAmount, vestingSchedule[_beneficiary].canceledTimestamp);\n  }\n\n  // Emergency withdrawal (Whole balance)\n  function emergencyWithdrawAllTokens() external onlyOwner {\n    uint256 balance = token.balanceOf(address(this));\n    // Return all tokens to the owner\n    require(token.transfer(owner(), balance), \"Unable to transfer tokens\");\n  }\n\n  function withdraw() external nonReentrant {\n    Schedule memory schedule = vestingSchedule[_msgSender()];\n    require(schedule.amount > 0, \"There is no schedule currently in flight\");\n\n    // available right now\n    uint256 amount = getAvailableWithdrawAmountForSchedule(schedule);\n    require(amount > 0, \"Nothing to withdraw\");\n\n    // Update last drawn to now\n    vestingSchedule[_msgSender()].lastDrawnAt = block.timestamp;\n\n    // Increase total drawn amount\n    vestingSchedule[_msgSender()].totalDrawn = schedule.totalDrawn + amount;\n\n    // Issue tokens to beneficiary\n    require(token.transfer(_msgSender(), amount), \"Unable to transfer tokens\");\n\n    emit Withdraw(_msgSender(), amount, block.timestamp);\n  }\n\n  // Accessors\n  function tokenBalance() external view returns (uint256) {\n    return token.balanceOf(address(this));\n  }\n\n  function vestingScheduleForBeneficiary(address _beneficiary)\n    external\n    view\n    returns (\n      uint256 _startTimestamp,\n      uint256 _endTimestamp,\n      uint256 _canceledTimestamp,\n      uint256 _amount,\n      uint256 _totalDrawn,\n      uint256 _lastDrawnAt,\n      uint256 _withdrawRate,\n      uint256 _remainingBalance\n    )\n  {\n    Schedule memory schedule = vestingSchedule[_beneficiary];\n    return (\n      schedule.startTimestamp,\n      schedule.endTimestamp,\n      schedule.canceledTimestamp,\n      schedule.amount,\n      schedule.totalDrawn,\n      schedule.lastDrawnAt,\n      schedule.withdrawRate,\n      schedule.amount - schedule.totalDrawn\n    );\n  }\n\n  function getAvailableWithdrawAmountForAddress(address _beneficiary) external view returns (uint256 _amount) {\n    Schedule memory schedule = vestingSchedule[_beneficiary];\n    return getAvailableWithdrawAmountForSchedule(schedule);\n  }\n\n  function getAvailableWithdrawAmountForSchedule(Schedule memory _schedule) internal view returns (uint256 _amount) {\n    // Vesting haven't started\n    if (block.timestamp <= _schedule.startTimestamp) {\n      return 0;\n    }\n\n    // Ended\n    if (block.timestamp > _schedule.endTimestamp && _schedule.canceledTimestamp == 0) {\n      return _schedule.amount - _schedule.totalDrawn;\n    }\n\n    // Canceled\n    if (block.timestamp > _schedule.canceledTimestamp && _schedule.canceledTimestamp != 0) {\n      uint256 timeVestedSinceCanceled = _schedule.canceledTimestamp - _schedule.startTimestamp;\n      return timeVestedSinceCanceled * _schedule.withdrawRate - _schedule.totalDrawn;\n    }\n\n    // Active\n    uint256 timePassedFromVestingStart = block.timestamp - _schedule.startTimestamp;\n    return timePassedFromVestingStart * _schedule.withdrawRate - _schedule.totalDrawn;\n  }\n}\n",
  "sourcePath": "/Users/mariussilenskis/AAGDevelopment/aag-token/contracts/AAGVestingContract.sol",
  "compiler": {
    "name": "solc",
    "version": "0.8.19+commit.7dd6d404.Emscripten.clang"
  },
  "schemaVersion": "3.4.3",
  "updatedAt": "2023-03-08T10:49:41.666Z",
  "networkType": "ethereum",
  "devdoc": {
    "kind": "dev",
    "methods": {
      "owner()": {
        "details": "Returns the address of the current owner."
      },
      "renounceOwnership()": {
        "details": "Leaves the contract without owner. It will not be possible to call `onlyOwner` functions anymore. Can only be called by the current owner. NOTE: Renouncing ownership will leave the contract without an owner, thereby removing any functionality that is only available to the owner."
      },
      "transferOwnership(address)": {
        "details": "Transfers ownership of the contract to a new account (`newOwner`). Can only be called by the current owner."
      }
    },
    "version": 1
  },
  "userdoc": {
    "kind": "user",
    "methods": {},
    "version": 1
  }
}