{
  "contractName": "AAGVestingContract",
  "abi": [
    {
      "inputs": [
        {
          "internalType": "contract IERC20",
          "name": "_token",
          "type": "address"
        }
      ],
      "stateMutability": "nonpayable",
      "type": "constructor"
    },
    {
      "anonymous": false,
      "inputs": [
        {
          "indexed": true,
          "internalType": "address",
          "name": "previousOwner",
          "type": "address"
        },
        {
          "indexed": true,
          "internalType": "address",
          "name": "newOwner",
          "type": "address"
        }
      ],
      "name": "OwnershipTransferred",
      "type": "event"
    },
    {
      "anonymous": false,
      "inputs": [
        {
          "indexed": true,
          "internalType": "address",
          "name": "_beneficiary",
          "type": "address"
        },
        {
          "indexed": true,
          "internalType": "address",
          "name": "_cancelledBy",
          "type": "address"
        },
        {
          "indexed": false,
          "internalType": "uint256",
          "name": "_remainingBalance",
          "type": "uint256"
        },
        {
          "indexed": false,
          "internalType": "uint256",
          "name": "_canceledTimestamp",
          "type": "uint256"
        }
      ],
      "name": "ScheduleCancelled",
      "type": "event"
    },
    {
      "anonymous": false,
      "inputs": [
        {
          "indexed": true,
          "internalType": "address",
          "name": "_beneficiary",
          "type": "address"
        },
        {
          "indexed": true,
          "internalType": "uint256",
          "name": "_amount",
          "type": "uint256"
        },
        {
          "indexed": true,
          "internalType": "uint256",
          "name": "_startTimestamp",
          "type": "uint256"
        },
        {
          "indexed": false,
          "internalType": "uint256",
          "name": "_duration",
          "type": "uint256"
        }
      ],
      "name": "ScheduleCreated",
      "type": "event"
    },
    {
      "anonymous": false,
      "inputs": [
        {
          "indexed": true,
          "internalType": "address",
          "name": "_beneficiary",
          "type": "address"
        },
        {
          "indexed": true,
          "internalType": "uint256",
          "name": "_amount",
          "type": "uint256"
        },
        {
          "indexed": true,
          "internalType": "uint256",
          "name": "_time",
          "type": "uint256"
        }
      ],
      "name": "Withdraw",
      "type": "event"
    },
    {
      "inputs": [],
      "name": "owner",
      "outputs": [
        {
          "internalType": "address",
          "name": "",
          "type": "address"
        }
      ],
      "stateMutability": "view",
      "type": "function"
    },
    {
      "inputs": [],
      "name": "renounceOwnership",
      "outputs": [],
      "stateMutability": "nonpayable",
      "type": "function"
    },
    {
      "inputs": [],
      "name": "token",
      "outputs": [
        {
          "internalType": "contract IERC20",
          "name": "",
          "type": "address"
        }
      ],
      "stateMutability": "view",
      "type": "function"
    },
    {
      "inputs": [
        {
          "internalType": "address",
          "name": "newOwner",
          "type": "address"
        }
      ],
      "name": "transferOwnership",
      "outputs": [],
      "stateMutability": "nonpayable",
      "type": "function"
    },
    {
      "inputs": [
        {
          "internalType": "address",
          "name": "_beneficiary",
          "type": "address"
        },
        {
          "internalType": "uint256",
          "name": "_amount",
          "type": "uint256"
        },
        {
          "internalType": "uint256",
          "name": "_startTimestamp",
          "type": "uint256"
        },
        {
          "internalType": "uint256",
          "name": "_durationInDays",
          "type": "uint256"
        }
      ],
      "name": "createVestingSchedule",
      "outputs": [],
      "stateMutability": "nonpayable",
      "type": "function"
    },
    {
      "inputs": [
        {
          "internalType": "address",
          "name": "_beneficiary",
          "type": "address"
        }
      ],
      "name": "cancelVestingForBeneficiary",
      "outputs": [],
      "stateMutability": "nonpayable",
      "type": "function"
    },
    {
      "inputs": [],
      "name": "emergencyWithdrawAllTokens",
      "outputs": [],
      "stateMutability": "nonpayable",
      "type": "function"
    },
    {
      "inputs": [],
      "name": "withdraw",
      "outputs": [],
      "stateMutability": "nonpayable",
      "type": "function"
    },
    {
      "inputs": [],
      "name": "tokenBalance",
      "outputs": [
        {
          "internalType": "uint256",
          "name": "",
          "type": "uint256"
        }
      ],
      "stateMutability": "view",
      "type": "function"
    },
    {
      "inputs": [
        {
          "internalType": "address",
          "name": "_beneficiary",
          "type": "address"
        }
      ],
      "name": "vestingScheduleForBeneficiary",
      "outputs": [
        {
          "internalType": "uint256",
          "name": "_startTimestamp",
          "type": "uint256"
        },
        {
          "internalType": "uint256",
          "name": "_endTimestamp",
          "type": "uint256"
        },
        {
          "internalType": "uint256",
          "name": "_canceledTimestamp",
          "type": "uint256"
        },
        {
          "internalType": "uint256",
          "name": "_amount",
          "type": "uint256"
        },
        {
          "internalType": "uint256",
          "name": "_totalDrawn",
          "type": "uint256"
        },
        {
          "internalType": "uint256",
          "name": "_lastDrawnAt",
          "type": "uint256"
        },
        {
          "internalType": "uint256",
          "name": "_withdrawRate",
          "type": "uint256"
        },
        {
          "internalType": "uint256",
          "name": "_remainingBalance",
          "type": "uint256"
        }
      ],
      "stateMutability": "view",
      "type": "function"
    },
    {
      "inputs": [
        {
          "internalType": "address",
          "name": "_beneficiary",
          "type": "address"
        }
      ],
      "name": "getAvailableWithdrawAmountForAddress",
      "outputs": [
        {
          "internalType": "uint256",
          "name": "_amount",
          "type": "uint256"
        }
      ],
      "stateMutability": "view",
      "type": "function"
    }
  ],
  "bytecode": "0x60806040523480156200001157600080fd5b5060405162002300380380620023008339818101604052810190620000379190620001f3565b60016000819055506200005f62000053620000a760201b60201c565b620000af60201b60201c565b80600360006101000a81548173ffffffffffffffffffffffffffffffffffffffff021916908373ffffffffffffffffffffffffffffffffffffffff1602179055505062000225565b600033905090565b6000600160009054906101000a900473ffffffffffffffffffffffffffffffffffffffff16905081600160006101000a81548173ffffffffffffffffffffffffffffffffffffffff021916908373ffffffffffffffffffffffffffffffffffffffff1602179055508173ffffffffffffffffffffffffffffffffffffffff168173ffffffffffffffffffffffffffffffffffffffff167f8be0079c531659141344cd1fd0a4f28419497f9722a3daafe3b4186f6b6457e060405160405180910390a35050565b600080fd5b600073ffffffffffffffffffffffffffffffffffffffff82169050919050565b6000620001a7826200017a565b9050919050565b6000620001bb826200019a565b9050919050565b620001cd81620001ae565b8114620001d957600080fd5b50565b600081519050620001ed81620001c2565b92915050565b6000602082840312156200020c576200020b62000175565b5b60006200021c84828501620001dc565b91505092915050565b6120cb80620002356000396000f3fe608060405234801561001057600080fd5b50600436106100a95760003560e01c80638da5cb5b116100715780638da5cb5b146101185780639e1a4d1914610136578063c570b83514610154578063efacabf01461018b578063f2fde38b146101a7578063fc0c546a146101c3576100a9565b8063324d2f68146100ae5780633ccfd60b146100de5780633f4e8e80146100e85780635624dfc614610104578063715018a61461010e575b600080fd5b6100c860048036038101906100c39190611571565b6101e1565b6040516100d591906115b7565b60405180910390f35b6100e6610287565b005b61010260048036038101906100fd91906115fe565b6105ff565b005b61010c610a33565b005b610116610c56565b005b610120610cde565b60405161012d9190611674565b60405180910390f35b61013e610d08565b60405161014b91906115b7565b60405180910390f35b61016e60048036038101906101699190611571565b610dba565b60405161018298979695949392919061168f565b60405180910390f35b6101a560048036038101906101a09190611571565b610ead565b005b6101c160048036038101906101bc9190611571565b61123d565b005b6101cb611335565b6040516101d8919061176c565b60405180910390f35b600080600260008473ffffffffffffffffffffffffffffffffffffffff1673ffffffffffffffffffffffffffffffffffffffff1681526020019081526020016000206040518060e0016040529081600082015481526020016001820154815260200160028201548152602001600382015481526020016004820154815260200160058201548152602001600682015481525050905061027f8161135b565b915050919050565b600260005414156102cd576040517f08c379a00000000000000000000000000000000000000000000000000000000081526004016102c4906117e4565b60405180910390fd5b60026000819055506000600260006102e3611440565b73ffffffffffffffffffffffffffffffffffffffff1673ffffffffffffffffffffffffffffffffffffffff1681526020019081526020016000206040518060e0016040529081600082015481526020016001820154815260200160028201548152602001600382015481526020016004820154815260200160058201548152602001600682015481525050905060008160600151116103b7576040517f08c379a00000000000000000000000000000000000000000000000000000000081526004016103ae90611876565b60405180910390fd5b60006103c28261135b565b905060008111610407576040517f08c379a00000000000000000000000000000000000000000000000000000000081526004016103fe906118e2565b60405180910390fd5b4260026000610414611440565b73ffffffffffffffffffffffffffffffffffffffff1673ffffffffffffffffffffffffffffffffffffffff168152602001908152602001600020600501819055508082608001516104659190611931565b60026000610471611440565b73ffffffffffffffffffffffffffffffffffffffff1673ffffffffffffffffffffffffffffffffffffffff16815260200190815260200160002060040181905550600360009054906101000a900473ffffffffffffffffffffffffffffffffffffffff1673ffffffffffffffffffffffffffffffffffffffff1663a9059cbb6104f8611440565b836040518363ffffffff1660e01b8152600401610516929190611987565b602060405180830381600087803b15801561053057600080fd5b505af1158015610544573d6000803e3d6000fd5b505050506040513d601f19601f8201168201806040525081019061056891906119e8565b6105a7576040517f08c379a000000000000000000000000000000000000000000000000000000000815260040161059e90611a61565b60405180910390fd5b42816105b1611440565b73ffffffffffffffffffffffffffffffffffffffff167ff279e6a1f5e320cca91135676d9cb6e44ca8a08c0b88342bcdb1144f6511b56860405160405180910390a450506001600081905550565b600073ffffffffffffffffffffffffffffffffffffffff168473ffffffffffffffffffffffffffffffffffffffff16141561066f576040517f08c379a000000000000000000000000000000000000000000000000000000000815260040161066690611acd565b60405180910390fd5b600083116106b2576040517f08c379a00000000000000000000000000000000000000000000000000000000081526004016106a990611b39565b60405180910390fd5b600081116106f5576040517f08c379a00000000000000000000000000000000000000000000000000000000081526004016106ec90611ba5565b60405180910390fd5b428211610737576040517f08c379a000000000000000000000000000000000000000000000000000000000815260040161072e90611c11565b60405180910390fd5b6000600260008673ffffffffffffffffffffffffffffffffffffffff1673ffffffffffffffffffffffffffffffffffffffff16815260200190815260200160002060030154146107bc576040517f08c379a00000000000000000000000000000000000000000000000000000000081526004016107b390611c7d565b60405180910390fd5b600062015180826107cd9190611c9d565b90506040518060e0016040528084815260200182856107ec9190611931565b815260200160008152602001858152602001600081526020016000815260200182866108189190611d26565b815250600260008773ffffffffffffffffffffffffffffffffffffffff1673ffffffffffffffffffffffffffffffffffffffff168152602001908152602001600020600082015181600001556020820151816001015560408201518160020155606082015181600301556080820151816004015560a0820151816005015560c08201518160060155905050600260008673ffffffffffffffffffffffffffffffffffffffff1673ffffffffffffffffffffffffffffffffffffffff16815260200190815260200160002060000154848673ffffffffffffffffffffffffffffffffffffffff167f5ab0cb75fe24f04dbfe14b847f8579bc91baa153ee5b2758fcfa59f33675b1628560405161092d91906115b7565b60405180910390a4600360009054906101000a900473ffffffffffffffffffffffffffffffffffffffff1673ffffffffffffffffffffffffffffffffffffffff166323b872dd61097b611440565b30876040518463ffffffff1660e01b815260040161099b93929190611d57565b602060405180830381600087803b1580156109b557600080fd5b505af11580156109c9573d6000803e3d6000fd5b505050506040513d601f19601f820116820180604052508101906109ed91906119e8565b610a2c576040517f08c379a0000000000000000000000000000000000000000000000000000000008152600401610a2390611e00565b60405180910390fd5b5050505050565b610a3b611440565b73ffffffffffffffffffffffffffffffffffffffff16610a59610cde565b73ffffffffffffffffffffffffffffffffffffffff1614610aaf576040517f08c379a0000000000000000000000000000000000000000000000000000000008152600401610aa690611e6c565b60405180910390fd5b6000600360009054906101000a900473ffffffffffffffffffffffffffffffffffffffff1673ffffffffffffffffffffffffffffffffffffffff166370a08231306040518263ffffffff1660e01b8152600401610b0c9190611674565b60206040518083038186803b158015610b2457600080fd5b505afa158015610b38573d6000803e3d6000fd5b505050506040513d601f19601f82011682018060405250810190610b5c9190611ea1565b9050600360009054906101000a900473ffffffffffffffffffffffffffffffffffffffff1673ffffffffffffffffffffffffffffffffffffffff1663a9059cbb610ba4610cde565b836040518363ffffffff1660e01b8152600401610bc2929190611987565b602060405180830381600087803b158015610bdc57600080fd5b505af1158015610bf0573d6000803e3d6000fd5b505050506040513d601f19601f82011682018060405250810190610c1491906119e8565b610c53576040517f08c379a0000000000000000000000000000000000000000000000000000000008152600401610c4a90611a61565b60405180910390fd5b50565b610c5e611440565b73ffffffffffffffffffffffffffffffffffffffff16610c7c610cde565b73ffffffffffffffffffffffffffffffffffffffff1614610cd2576040517f08c379a0000000000000000000000000000000000000000000000000000000008152600401610cc990611e6c565b60405180910390fd5b610cdc6000611448565b565b6000600160009054906101000a900473ffffffffffffffffffffffffffffffffffffffff16905090565b6000600360009054906101000a900473ffffffffffffffffffffffffffffffffffffffff1673ffffffffffffffffffffffffffffffffffffffff166370a08231306040518263ffffffff1660e01b8152600401610d659190611674565b60206040518083038186803b158015610d7d57600080fd5b505afa158015610d91573d6000803e3d6000fd5b505050506040513d601f19601f82011682018060405250810190610db59190611ea1565b905090565b6000806000806000806000806000600260008b73ffffffffffffffffffffffffffffffffffffffff1673ffffffffffffffffffffffffffffffffffffffff1681526020019081526020016000206040518060e00160405290816000820154815260200160018201548152602001600282015481526020016003820154815260200160048201548152602001600582015481526020016006820154815250509050806000015181602001518260400151836060015184608001518560a001518660c0015187608001518860600151610e919190611ece565b9850985098509850985098509850985050919395975091939597565b610eb5611440565b73ffffffffffffffffffffffffffffffffffffffff16610ed3610cde565b73ffffffffffffffffffffffffffffffffffffffff1614610f29576040517f08c379a0000000000000000000000000000000000000000000000000000000008152600401610f2090611e6c565b60405180910390fd5b6000600260008373ffffffffffffffffffffffffffffffffffffffff1673ffffffffffffffffffffffffffffffffffffffff16815260200190815260200160002090506000816002015414610fb3576040517f08c379a0000000000000000000000000000000000000000000000000000000008152600401610faa90611f4e565b60405180910390fd5b42816001015411610ff9576040517f08c379a0000000000000000000000000000000000000000000000000000000008152600401610ff090611fba565b60405180910390fd5b6000611055826040518060e001604052908160008201548152602001600182015481526020016002820154815260200160038201548152602001600482015481526020016005820154815260200160068201548152505061135b565b905042826002018190555060008260040154826110729190611931565b905060008184600301546110869190611ece565b9050818460030181905550600360009054906101000a900473ffffffffffffffffffffffffffffffffffffffff1673ffffffffffffffffffffffffffffffffffffffff1663a9059cbb6110d7610cde565b836040518363ffffffff1660e01b81526004016110f5929190611987565b602060405180830381600087803b15801561110f57600080fd5b505af1158015611123573d6000803e3d6000fd5b505050506040513d601f19601f8201168201806040525081019061114791906119e8565b611186576040517f08c379a000000000000000000000000000000000000000000000000000000000815260040161117d90611a61565b60405180910390fd5b61118e611440565b73ffffffffffffffffffffffffffffffffffffffff168573ffffffffffffffffffffffffffffffffffffffff167fbc2075d9ef107583b6d08c65185a920ae48465167bcc8d1a42829d206a894d1a85600260008a73ffffffffffffffffffffffffffffffffffffffff1673ffffffffffffffffffffffffffffffffffffffff1681526020019081526020016000206002015460405161122e929190611fda565b60405180910390a35050505050565b611245611440565b73ffffffffffffffffffffffffffffffffffffffff16611263610cde565b73ffffffffffffffffffffffffffffffffffffffff16146112b9576040517f08c379a00000000000000000000000000000000000000000000000000000000081526004016112b090611e6c565b60405180910390fd5b600073ffffffffffffffffffffffffffffffffffffffff168173ffffffffffffffffffffffffffffffffffffffff161415611329576040517f08c379a000000000000000000000000000000000000000000000000000000000815260040161132090612075565b60405180910390fd5b61133281611448565b50565b600360009054906101000a900473ffffffffffffffffffffffffffffffffffffffff1681565b600081600001514211611371576000905061143b565b816020015142118015611388575060008260400151145b156113a857816080015182606001516113a19190611ece565b905061143b565b8160400151421180156113c057506000826040015114155b15611404576000826000015183604001516113db9190611ece565b905082608001518360c00151826113f29190611c9d565b6113fc9190611ece565b91505061143b565b60008260000151426114169190611ece565b905082608001518360c001518261142d9190611c9d565b6114379190611ece565b9150505b919050565b600033905090565b6000600160009054906101000a900473ffffffffffffffffffffffffffffffffffffffff16905081600160006101000a81548173ffffffffffffffffffffffffffffffffffffffff021916908373ffffffffffffffffffffffffffffffffffffffff1602179055508173ffffffffffffffffffffffffffffffffffffffff168173ffffffffffffffffffffffffffffffffffffffff167f8be0079c531659141344cd1fd0a4f28419497f9722a3daafe3b4186f6b6457e060405160405180910390a35050565b600080fd5b600073ffffffffffffffffffffffffffffffffffffffff82169050919050565b600061153e82611513565b9050919050565b61154e81611533565b811461155957600080fd5b50565b60008135905061156b81611545565b92915050565b6000602082840312156115875761158661150e565b5b60006115958482850161155c565b91505092915050565b6000819050919050565b6115b18161159e565b82525050565b60006020820190506115cc60008301846115a8565b92915050565b6115db8161159e565b81146115e657600080fd5b50565b6000813590506115f8816115d2565b92915050565b600080600080608085870312156116185761161761150e565b5b60006116268782880161155c565b9450506020611637878288016115e9565b9350506040611648878288016115e9565b9250506060611659878288016115e9565b91505092959194509250565b61166e81611533565b82525050565b60006020820190506116896000830184611665565b92915050565b6000610100820190506116a5600083018b6115a8565b6116b2602083018a6115a8565b6116bf60408301896115a8565b6116cc60608301886115a8565b6116d960808301876115a8565b6116e660a08301866115a8565b6116f360c08301856115a8565b61170060e08301846115a8565b9998505050505050505050565b6000819050919050565b600061173261172d61172884611513565b61170d565b611513565b9050919050565b600061174482611717565b9050919050565b600061175682611739565b9050919050565b6117668161174b565b82525050565b6000602082019050611781600083018461175d565b92915050565b600082825260208201905092915050565b7f5265656e7472616e637947756172643a207265656e7472616e742063616c6c00600082015250565b60006117ce601f83611787565b91506117d982611798565b602082019050919050565b600060208201905081810360008301526117fd816117c1565b9050919050565b7f5468657265206973206e6f207363686564756c652063757272656e746c79206960008201527f6e20666c69676874000000000000000000000000000000000000000000000000602082015250565b6000611860602883611787565b915061186b82611804565b604082019050919050565b6000602082019050818103600083015261188f81611853565b9050919050565b7f4e6f7468696e6720746f20776974686472617700000000000000000000000000600082015250565b60006118cc601383611787565b91506118d782611896565b602082019050919050565b600060208201905081810360008301526118fb816118bf565b9050919050565b7f4e487b7100000000000000000000000000000000000000000000000000000000600052601160045260246000fd5b600061193c8261159e565b91506119478361159e565b9250827fffffffffffffffffffffffffffffffffffffffffffffffffffffffffffffffff0382111561197c5761197b611902565b5b828201905092915050565b600060408201905061199c6000830185611665565b6119a960208301846115a8565b9392505050565b60008115159050919050565b6119c5816119b0565b81146119d057600080fd5b50565b6000815190506119e2816119bc565b92915050565b6000602082840312156119fe576119fd61150e565b5b6000611a0c848285016119d3565b91505092915050565b7f556e61626c6520746f207472616e7366657220746f6b656e7300000000000000600082015250565b6000611a4b601983611787565b9150611a5682611a15565b602082019050919050565b60006020820190508181036000830152611a7a81611a3e565b9050919050565b7f42656e65666963696172792063616e6e6f7420626520656d7074790000000000600082015250565b6000611ab7601b83611787565b9150611ac282611a81565b602082019050919050565b60006020820190508181036000830152611ae681611aaa565b9050919050565b7f416d6f756e742063616e6e6f7420626520656d70747900000000000000000000600082015250565b6000611b23601683611787565b9150611b2e82611aed565b602082019050919050565b60006020820190508181036000830152611b5281611b16565b9050919050565b7f4475726174696f6e2063616e6e6f7420626520656d7074790000000000000000600082015250565b6000611b8f601883611787565b9150611b9a82611b59565b602082019050919050565b60006020820190508181036000830152611bbe81611b82565b9050919050565b7f43616e206e6f742073657420746865206461746520696e207468652070617374600082015250565b6000611bfb602083611787565b9150611c0682611bc5565b602082019050919050565b60006020820190508181036000830152611c2a81611bee565b9050919050565b7f5363686564756c6520616c726561647920657869737473000000000000000000600082015250565b6000611c67601783611787565b9150611c7282611c31565b602082019050919050565b60006020820190508181036000830152611c9681611c5a565b9050919050565b6000611ca88261159e565b9150611cb38361159e565b9250817fffffffffffffffffffffffffffffffffffffffffffffffffffffffffffffffff0483118215151615611cec57611ceb611902565b5b828202905092915050565b7f4e487b7100000000000000000000000000000000000000000000000000000000600052601260045260246000fd5b6000611d318261159e565b9150611d3c8361159e565b925082611d4c57611d4b611cf7565b5b828204905092915050565b6000606082019050611d6c6000830186611665565b611d796020830185611665565b611d8660408301846115a8565b949350505050565b7f556e61626c6520746f207472616e7366657220746f6b656e7320746f2076657360008201527f74696e6720636f6e747261637400000000000000000000000000000000000000602082015250565b6000611dea602d83611787565b9150611df582611d8e565b604082019050919050565b60006020820190508181036000830152611e1981611ddd565b9050919050565b7f4f776e61626c653a2063616c6c6572206973206e6f7420746865206f776e6572600082015250565b6000611e56602083611787565b9150611e6182611e20565b602082019050919050565b60006020820190508181036000830152611e8581611e49565b9050919050565b600081519050611e9b816115d2565b92915050565b600060208284031215611eb757611eb661150e565b5b6000611ec584828501611e8c565b91505092915050565b6000611ed98261159e565b9150611ee48361159e565b925082821015611ef757611ef6611902565b5b828203905092915050565b7f43616e206e6f742063616e63656c207477696365000000000000000000000000600082015250565b6000611f38601483611787565b9150611f4382611f02565b602082019050919050565b60006020820190508181036000830152611f6781611f2b565b9050919050565b7f56657374696e6720697320616c72656164792066696e69736865640000000000600082015250565b6000611fa4601b83611787565b9150611faf82611f6e565b602082019050919050565b60006020820190508181036000830152611fd381611f97565b9050919050565b6000604082019050611fef60008301856115a8565b611ffc60208301846115a8565b9392505050565b7f4f776e61626c653a206e6577206f776e657220697320746865207a65726f206160008201527f6464726573730000000000000000000000000000000000000000000000000000602082015250565b600061205f602683611787565b915061206a82612003565b604082019050919050565b6000602082019050818103600083015261208e81612052565b905091905056fea2646970667358221220e65e48f71640fd1eeccd751ba210dca8fb5b8fcdee568e23e3e8101560a3dc9264736f6c63430008090033",
  "immutableReferences": {},
  "source": "// SPDX-License-Identifier: MIT\n\npragma solidity ^0.8.0;\n\nimport \"@openzeppelin/contracts/token/ERC20/ERC20.sol\";\nimport \"@openzeppelin/contracts/security/ReentrancyGuard.sol\";\nimport \"@openzeppelin/contracts/access/Ownable.sol\";\n\ncontract AAGVestingContract is ReentrancyGuard, Context, Ownable {\n  event ScheduleCreated(address indexed _beneficiary, uint256 indexed _amount, uint256 indexed _startTimestamp, uint256 _duration);\n\n  event ScheduleCancelled(address indexed _beneficiary, address indexed _cancelledBy, uint256 _remainingBalance, uint256 _canceledTimestamp);\n\n  event Withdraw(address indexed _beneficiary, uint256 indexed _amount, uint256 indexed _time);\n\n  struct Schedule {\n    uint256 startTimestamp;\n    uint256 endTimestamp;\n    uint256 canceledTimestamp;\n    uint256 amount;\n    uint256 totalDrawn;\n    uint256 lastDrawnAt;\n    uint256 withdrawRate;\n  }\n\n  // Vested address to its schedule\n  mapping(address => Schedule) private vestingSchedule;\n\n  // AAG token contract\n  IERC20 public token;\n  uint256 private constant ONE_DAY_IN_SECONDS = 1 days;\n\n  constructor(IERC20 _token) {\n    token = _token;\n  }\n\n  // Create vesting schedule\n  function createVestingSchedule(\n    address _beneficiary,\n    uint256 _amount,\n    uint256 _startTimestamp,\n    uint256 _durationInDays\n  ) public {\n    require(_beneficiary != address(0), \"Beneficiary cannot be empty\");\n    require(_amount > 0, \"Amount cannot be empty\");\n    require(_durationInDays > 0, \"Duration cannot be empty\");\n    require(_startTimestamp > block.timestamp, \"Can not set the date in the past\");\n    // Ensure one per address\n    require(vestingSchedule[_beneficiary].amount == 0, \"Schedule already exists\");\n\n    // Create schedule\n    uint256 _durationInSecs = _durationInDays * ONE_DAY_IN_SECONDS;\n    vestingSchedule[_beneficiary] = Schedule({\n      startTimestamp: _startTimestamp,\n      endTimestamp: _startTimestamp + _durationInSecs,\n      canceledTimestamp: 0,\n      amount: _amount,\n      totalDrawn: 0,\n      lastDrawnAt: 0,\n      withdrawRate: _amount / _durationInSecs\n    });\n\n    emit ScheduleCreated(_beneficiary, _amount, vestingSchedule[_beneficiary].startTimestamp, _durationInDays);\n\n    // Transfer tokens in the vesting contract on behalf of the beneficiary\n    require(token.transferFrom(_msgSender(), address(this), _amount), \"Unable to transfer tokens to vesting contract\");\n  }\n\n  // Cancel vesting schedule for beneficiary\n  function cancelVestingForBeneficiary(address _beneficiary) public onlyOwner {\n    Schedule storage item = vestingSchedule[_beneficiary];\n    require(item.canceledTimestamp == 0, \"Can not cancel twice\");\n    require(item.endTimestamp > block.timestamp, \"Vesting is already finished\");\n\n    uint256 availableAmount = getAvailableWithdrawAmountForSchedule(item);\n\n    item.canceledTimestamp = block.timestamp;\n\n    uint256 finalAmountForBeneficiary = availableAmount + item.totalDrawn;\n    uint256 amountToRetrieveToOwner = item.amount - finalAmountForBeneficiary;\n\n    // Set final amount for beneficiary\n    item.amount = finalAmountForBeneficiary;\n\n    // Return unvested tokens to owner\n    require(token.transfer(owner(), amountToRetrieveToOwner), \"Unable to transfer tokens\");\n\n    emit ScheduleCancelled(_beneficiary, _msgSender(), availableAmount, vestingSchedule[_beneficiary].canceledTimestamp);\n  }\n\n  // Emergency withdrawal (Whole balance)\n  function emergencyWithdrawAllTokens() public onlyOwner {\n    uint256 balance = token.balanceOf(address(this));\n    // Return all tokens to the owner\n    require(token.transfer(owner(), balance), \"Unable to transfer tokens\");\n  }\n\n  function withdraw() external nonReentrant {\n    Schedule memory schedule = vestingSchedule[_msgSender()];\n    require(schedule.amount > 0, \"There is no schedule currently in flight\");\n\n    // available right now\n    uint256 amount = getAvailableWithdrawAmountForSchedule(schedule);\n    require(amount > 0, \"Nothing to withdraw\");\n\n    // Update last drawn to now\n    vestingSchedule[_msgSender()].lastDrawnAt = block.timestamp;\n\n    // Increase total drawn amount\n    vestingSchedule[_msgSender()].totalDrawn = schedule.totalDrawn + amount;\n\n    // Issue tokens to beneficiary\n    require(token.transfer(_msgSender(), amount), \"Unable to transfer tokens\");\n\n    emit Withdraw(_msgSender(), amount, block.timestamp);\n  }\n\n  // Accessors\n  function tokenBalance() external view returns (uint256) {\n    return token.balanceOf(address(this));\n  }\n\n  function vestingScheduleForBeneficiary(address _beneficiary)\n    external\n    view\n    returns (\n      uint256 _startTimestamp,\n      uint256 _endTimestamp,\n      uint256 _canceledTimestamp,\n      uint256 _amount,\n      uint256 _totalDrawn,\n      uint256 _lastDrawnAt,\n      uint256 _withdrawRate,\n      uint256 _remainingBalance\n    )\n  {\n    Schedule memory schedule = vestingSchedule[_beneficiary];\n    return (\n      schedule.startTimestamp,\n      schedule.endTimestamp,\n      schedule.canceledTimestamp,\n      schedule.amount,\n      schedule.totalDrawn,\n      schedule.lastDrawnAt,\n      schedule.withdrawRate,\n      schedule.amount - schedule.totalDrawn\n    );\n  }\n\n  function getAvailableWithdrawAmountForAddress(address _beneficiary) external view returns (uint256 _amount) {\n    Schedule memory schedule = vestingSchedule[_beneficiary];\n    return getAvailableWithdrawAmountForSchedule(schedule);\n  }\n\n  function getAvailableWithdrawAmountForSchedule(Schedule memory _schedule) internal view returns (uint256 _amount) {\n    // Vesting haven't started\n    if (block.timestamp <= _schedule.startTimestamp) {\n      return 0;\n    }\n\n    // Ended\n    if (block.timestamp > _schedule.endTimestamp && _schedule.canceledTimestamp == 0) {\n      return _schedule.amount - _schedule.totalDrawn;\n    }\n\n    // Canceled\n    if (block.timestamp > _schedule.canceledTimestamp && _schedule.canceledTimestamp != 0) {\n      uint256 timeVestedSinceCanceled = _schedule.canceledTimestamp - _schedule.startTimestamp;\n      return timeVestedSinceCanceled * _schedule.withdrawRate - _schedule.totalDrawn;\n    }\n\n    // Active\n    uint256 timePassedFromVestingStart = block.timestamp - _schedule.startTimestamp;\n    return timePassedFromVestingStart * _schedule.withdrawRate - _schedule.totalDrawn;\n  }\n}\n",
  "sourcePath": "/Users/mariussilenskis/AAGDevelopment/aag-token/contracts/AAGVestingContract.sol",
  "compiler": {
    "name": "solc",
    "version": "0.8.9+commit.e5eed63a.Emscripten.clang"
  },
  "schemaVersion": "3.2.3",
  "updatedAt": "2021-10-20T12:51:47.520Z",
  "devdoc": {
    "kind": "dev",
    "methods": {
      "owner()": {
        "details": "Returns the address of the current owner."
      },
      "renounceOwnership()": {
        "details": "Leaves the contract without owner. It will not be possible to call `onlyOwner` functions anymore. Can only be called by the current owner. NOTE: Renouncing ownership will leave the contract without an owner, thereby removing any functionality that is only available to the owner."
      },
      "transferOwnership(address)": {
        "details": "Transfers ownership of the contract to a new account (`newOwner`). Can only be called by the current owner."
      }
    },
    "version": 1
  },
  "userdoc": {
    "kind": "user",
    "methods": {},
    "version": 1
  }
}