{
  "contractName": "AAGVestingContract",
  "abi": [
    {
      "inputs": [
        {
          "internalType": "contract IERC20",
          "name": "_token",
          "type": "address"
        },
        {
          "internalType": "address",
          "name": "_admin",
          "type": "address"
        }
      ],
      "stateMutability": "nonpayable",
      "type": "constructor"
    },
    {
      "anonymous": false,
      "inputs": [
        {
          "indexed": true,
          "internalType": "address",
          "name": "_beneficiary",
          "type": "address"
        },
        {
          "indexed": true,
          "internalType": "address",
          "name": "_cancelledBy",
          "type": "address"
        },
        {
          "indexed": false,
          "internalType": "uint256",
          "name": "_remainingBalance",
          "type": "uint256"
        },
        {
          "indexed": false,
          "internalType": "uint256",
          "name": "_canceledTimestamp",
          "type": "uint256"
        }
      ],
      "name": "ScheduleCancelled",
      "type": "event"
    },
    {
      "anonymous": false,
      "inputs": [
        {
          "indexed": true,
          "internalType": "address",
          "name": "_beneficiary",
          "type": "address"
        },
        {
          "indexed": true,
          "internalType": "uint256",
          "name": "_amount",
          "type": "uint256"
        },
        {
          "indexed": true,
          "internalType": "uint256",
          "name": "_startTimestamp",
          "type": "uint256"
        },
        {
          "indexed": false,
          "internalType": "uint256",
          "name": "_duration",
          "type": "uint256"
        }
      ],
      "name": "ScheduleCreated",
      "type": "event"
    },
    {
      "anonymous": false,
      "inputs": [
        {
          "indexed": true,
          "internalType": "address",
          "name": "_beneficiary",
          "type": "address"
        },
        {
          "indexed": true,
          "internalType": "uint256",
          "name": "_amount",
          "type": "uint256"
        },
        {
          "indexed": true,
          "internalType": "uint256",
          "name": "_time",
          "type": "uint256"
        }
      ],
      "name": "Withdraw",
      "type": "event"
    },
    {
      "inputs": [],
      "name": "token",
      "outputs": [
        {
          "internalType": "contract IERC20",
          "name": "",
          "type": "address"
        }
      ],
      "stateMutability": "view",
      "type": "function"
    },
    {
      "inputs": [
        {
          "internalType": "address",
          "name": "_beneficiary",
          "type": "address"
        },
        {
          "internalType": "uint256",
          "name": "_amount",
          "type": "uint256"
        },
        {
          "internalType": "uint256",
          "name": "_startTimestamp",
          "type": "uint256"
        },
        {
          "internalType": "uint256",
          "name": "_durationInDays",
          "type": "uint256"
        }
      ],
      "name": "createVestingSchedule",
      "outputs": [],
      "stateMutability": "nonpayable",
      "type": "function"
    },
    {
      "inputs": [
        {
          "internalType": "address",
          "name": "_beneficiary",
          "type": "address"
        }
      ],
      "name": "cancelVestingForBeneficiary",
      "outputs": [],
      "stateMutability": "nonpayable",
      "type": "function"
    },
    {
      "inputs": [],
      "name": "emergencyWithdrawAllTokens",
      "outputs": [],
      "stateMutability": "nonpayable",
      "type": "function"
    },
    {
      "inputs": [],
      "name": "withdraw",
      "outputs": [],
      "stateMutability": "nonpayable",
      "type": "function"
    },
    {
      "inputs": [],
      "name": "tokenBalance",
      "outputs": [
        {
          "internalType": "uint256",
          "name": "",
          "type": "uint256"
        }
      ],
      "stateMutability": "view",
      "type": "function"
    },
    {
      "inputs": [
        {
          "internalType": "address",
          "name": "_beneficiary",
          "type": "address"
        }
      ],
      "name": "vestingScheduleForBeneficiary",
      "outputs": [
        {
          "internalType": "uint256",
          "name": "_startTimestamp",
          "type": "uint256"
        },
        {
          "internalType": "uint256",
          "name": "_endTimestamp",
          "type": "uint256"
        },
        {
          "internalType": "uint256",
          "name": "_canceledTimestamp",
          "type": "uint256"
        },
        {
          "internalType": "uint256",
          "name": "_amount",
          "type": "uint256"
        },
        {
          "internalType": "uint256",
          "name": "_totalDrawn",
          "type": "uint256"
        },
        {
          "internalType": "uint256",
          "name": "_lastDrawnAt",
          "type": "uint256"
        },
        {
          "internalType": "uint256",
          "name": "_withdrawRate",
          "type": "uint256"
        },
        {
          "internalType": "uint256",
          "name": "_remainingBalance",
          "type": "uint256"
        }
      ],
      "stateMutability": "view",
      "type": "function"
    },
    {
      "inputs": [
        {
          "internalType": "address",
          "name": "_beneficiary",
          "type": "address"
        }
      ],
      "name": "getAvailableWithdrawAmountForAddress",
      "outputs": [
        {
          "internalType": "uint256",
          "name": "_amount",
          "type": "uint256"
        }
      ],
      "stateMutability": "view",
      "type": "function"
    }
  ],
  "bytecode": "0x60806040523480156200001157600080fd5b5060405162001fda38038062001fda8339818101604052810190620000379190620001b3565b6001600081905550600073ffffffffffffffffffffffffffffffffffffffff168273ffffffffffffffffffffffffffffffffffffffff1614156200007a57600080fd5b81600260006101000a81548173ffffffffffffffffffffffffffffffffffffffff021916908373ffffffffffffffffffffffffffffffffffffffff16021790555080600360006101000a81548173ffffffffffffffffffffffffffffffffffffffff021916908373ffffffffffffffffffffffffffffffffffffffff1602179055505050620001fa565b600080fd5b600073ffffffffffffffffffffffffffffffffffffffff82169050919050565b6000620001368262000109565b9050919050565b60006200014a8262000129565b9050919050565b6200015c816200013d565b81146200016857600080fd5b50565b6000815190506200017c8162000151565b92915050565b6200018d8162000129565b81146200019957600080fd5b50565b600081519050620001ad8162000182565b92915050565b60008060408385031215620001cd57620001cc62000104565b5b6000620001dd858286016200016b565b9250506020620001f0858286016200019c565b9150509250929050565b611dd0806200020a6000396000f3fe608060405234801561001057600080fd5b50600436106100885760003560e01c80639e1a4d191161005b5780639e1a4d19146100ed578063c570b8351461010b578063efacabf014610142578063fc0c546a1461015e57610088565b8063324d2f681461008d5780633ccfd60b146100bd5780633f4e8e80146100c75780635624dfc6146100e3575b600080fd5b6100a760048036038101906100a29190611308565b61017c565b6040516100b4919061134e565b60405180910390f35b6100c5610222565b005b6100e160048036038101906100dc9190611395565b61059a565b005b6100eb6109ce565b005b6100f5610c27565b604051610102919061134e565b60405180910390f35b61012560048036038101906101209190611308565b610cd9565b6040516101399897969594939291906113fc565b60405180910390f35b61015c60048036038101906101579190611308565b610dcc565b005b610166611192565b60405161017391906114d9565b60405180910390f35b600080600160008473ffffffffffffffffffffffffffffffffffffffff1673ffffffffffffffffffffffffffffffffffffffff1681526020019081526020016000206040518060e0016040529081600082015481526020016001820154815260200160028201548152602001600382015481526020016004820154815260200160058201548152602001600682015481525050905061021a816111b8565b915050919050565b60026000541415610268576040517f08c379a000000000000000000000000000000000000000000000000000000000815260040161025f90611551565b60405180910390fd5b600260008190555060006001600061027e61129d565b73ffffffffffffffffffffffffffffffffffffffff1673ffffffffffffffffffffffffffffffffffffffff1681526020019081526020016000206040518060e001604052908160008201548152602001600182015481526020016002820154815260200160038201548152602001600482015481526020016005820154815260200160068201548152505090506000816060015111610352576040517f08c379a0000000000000000000000000000000000000000000000000000000008152600401610349906115e3565b60405180910390fd5b600061035d826111b8565b9050600081116103a2576040517f08c379a00000000000000000000000000000000000000000000000000000000081526004016103999061164f565b60405180910390fd5b42600160006103af61129d565b73ffffffffffffffffffffffffffffffffffffffff1673ffffffffffffffffffffffffffffffffffffffff16815260200190815260200160002060050181905550808260800151610400919061169e565b6001600061040c61129d565b73ffffffffffffffffffffffffffffffffffffffff1673ffffffffffffffffffffffffffffffffffffffff16815260200190815260200160002060040181905550600260009054906101000a900473ffffffffffffffffffffffffffffffffffffffff1673ffffffffffffffffffffffffffffffffffffffff1663a9059cbb61049361129d565b836040518363ffffffff1660e01b81526004016104b1929190611703565b602060405180830381600087803b1580156104cb57600080fd5b505af11580156104df573d6000803e3d6000fd5b505050506040513d601f19601f820116820180604052508101906105039190611764565b610542576040517f08c379a0000000000000000000000000000000000000000000000000000000008152600401610539906117dd565b60405180910390fd5b428161054c61129d565b73ffffffffffffffffffffffffffffffffffffffff167ff279e6a1f5e320cca91135676d9cb6e44ca8a08c0b88342bcdb1144f6511b56860405160405180910390a450506001600081905550565b600073ffffffffffffffffffffffffffffffffffffffff168473ffffffffffffffffffffffffffffffffffffffff16141561060a576040517f08c379a000000000000000000000000000000000000000000000000000000000815260040161060190611849565b60405180910390fd5b6000831161064d576040517f08c379a0000000000000000000000000000000000000000000000000000000008152600401610644906118b5565b60405180910390fd5b60008111610690576040517f08c379a000000000000000000000000000000000000000000000000000000000815260040161068790611921565b60405180910390fd5b4282116106d2576040517f08c379a00000000000000000000000000000000000000000000000000000000081526004016106c99061198d565b60405180910390fd5b6000600160008673ffffffffffffffffffffffffffffffffffffffff1673ffffffffffffffffffffffffffffffffffffffff1681526020019081526020016000206003015414610757576040517f08c379a000000000000000000000000000000000000000000000000000000000815260040161074e906119f9565b60405180910390fd5b600062015180826107689190611a19565b90506040518060e001604052808481526020018285610787919061169e565b815260200160008152602001858152602001600081526020016000815260200182866107b39190611aa2565b815250600160008773ffffffffffffffffffffffffffffffffffffffff1673ffffffffffffffffffffffffffffffffffffffff168152602001908152602001600020600082015181600001556020820151816001015560408201518160020155606082015181600301556080820151816004015560a0820151816005015560c08201518160060155905050600160008673ffffffffffffffffffffffffffffffffffffffff1673ffffffffffffffffffffffffffffffffffffffff16815260200190815260200160002060000154848673ffffffffffffffffffffffffffffffffffffffff167f5ab0cb75fe24f04dbfe14b847f8579bc91baa153ee5b2758fcfa59f33675b162856040516108c8919061134e565b60405180910390a4600260009054906101000a900473ffffffffffffffffffffffffffffffffffffffff1673ffffffffffffffffffffffffffffffffffffffff166323b872dd61091661129d565b30876040518463ffffffff1660e01b815260040161093693929190611ad3565b602060405180830381600087803b15801561095057600080fd5b505af1158015610964573d6000803e3d6000fd5b505050506040513d601f19601f820116820180604052508101906109889190611764565b6109c7576040517f08c379a00000000000000000000000000000000000000000000000000000000081526004016109be90611b7c565b60405180910390fd5b5050505050565b600360009054906101000a900473ffffffffffffffffffffffffffffffffffffffff1673ffffffffffffffffffffffffffffffffffffffff16610a0f61129d565b73ffffffffffffffffffffffffffffffffffffffff1614610a65576040517f08c379a0000000000000000000000000000000000000000000000000000000008152600401610a5c90611be8565b60405180910390fd5b6000600260009054906101000a900473ffffffffffffffffffffffffffffffffffffffff1673ffffffffffffffffffffffffffffffffffffffff166370a08231306040518263ffffffff1660e01b8152600401610ac29190611c08565b60206040518083038186803b158015610ada57600080fd5b505afa158015610aee573d6000803e3d6000fd5b505050506040513d601f19601f82011682018060405250810190610b129190611c38565b9050600260009054906101000a900473ffffffffffffffffffffffffffffffffffffffff1673ffffffffffffffffffffffffffffffffffffffff1663a9059cbb600360009054906101000a900473ffffffffffffffffffffffffffffffffffffffff16836040518363ffffffff1660e01b8152600401610b93929190611703565b602060405180830381600087803b158015610bad57600080fd5b505af1158015610bc1573d6000803e3d6000fd5b505050506040513d601f19601f82011682018060405250810190610be59190611764565b610c24576040517f08c379a0000000000000000000000000000000000000000000000000000000008152600401610c1b906117dd565b60405180910390fd5b50565b6000600260009054906101000a900473ffffffffffffffffffffffffffffffffffffffff1673ffffffffffffffffffffffffffffffffffffffff166370a08231306040518263ffffffff1660e01b8152600401610c849190611c08565b60206040518083038186803b158015610c9c57600080fd5b505afa158015610cb0573d6000803e3d6000fd5b505050506040513d601f19601f82011682018060405250810190610cd49190611c38565b905090565b6000806000806000806000806000600160008b73ffffffffffffffffffffffffffffffffffffffff1673ffffffffffffffffffffffffffffffffffffffff1681526020019081526020016000206040518060e00160405290816000820154815260200160018201548152602001600282015481526020016003820154815260200160048201548152602001600582015481526020016006820154815250509050806000015181602001518260400151836060015184608001518560a001518660c0015187608001518860600151610db09190611c65565b9850985098509850985098509850985050919395975091939597565b600360009054906101000a900473ffffffffffffffffffffffffffffffffffffffff1673ffffffffffffffffffffffffffffffffffffffff16610e0d61129d565b73ffffffffffffffffffffffffffffffffffffffff1614610e63576040517f08c379a0000000000000000000000000000000000000000000000000000000008152600401610e5a90611be8565b60405180910390fd5b6000600160008373ffffffffffffffffffffffffffffffffffffffff1673ffffffffffffffffffffffffffffffffffffffff16815260200190815260200160002090506000816002015414610eed576040517f08c379a0000000000000000000000000000000000000000000000000000000008152600401610ee490611ce5565b60405180910390fd5b42816001015411610f33576040517f08c379a0000000000000000000000000000000000000000000000000000000008152600401610f2a90611d51565b60405180910390fd5b6000610f8f826040518060e00160405290816000820154815260200160018201548152602001600282015481526020016003820154815260200160048201548152602001600582015481526020016006820154815250506111b8565b90504282600201819055506000826004015482610fac919061169e565b90506000818460030154610fc09190611c65565b9050818460030181905550600260009054906101000a900473ffffffffffffffffffffffffffffffffffffffff1673ffffffffffffffffffffffffffffffffffffffff1663a9059cbb600360009054906101000a900473ffffffffffffffffffffffffffffffffffffffff16836040518363ffffffff1660e01b815260040161104a929190611703565b602060405180830381600087803b15801561106457600080fd5b505af1158015611078573d6000803e3d6000fd5b505050506040513d601f19601f8201168201806040525081019061109c9190611764565b6110db576040517f08c379a00000000000000000000000000000000000000000000000000000000081526004016110d2906117dd565b60405180910390fd5b6110e361129d565b73ffffffffffffffffffffffffffffffffffffffff168573ffffffffffffffffffffffffffffffffffffffff167fbc2075d9ef107583b6d08c65185a920ae48465167bcc8d1a42829d206a894d1a85600160008a73ffffffffffffffffffffffffffffffffffffffff1673ffffffffffffffffffffffffffffffffffffffff16815260200190815260200160002060020154604051611183929190611d71565b60405180910390a35050505050565b600260009054906101000a900473ffffffffffffffffffffffffffffffffffffffff1681565b6000816000015142116111ce5760009050611298565b8160200151421180156111e5575060008260400151145b1561120557816080015182606001516111fe9190611c65565b9050611298565b81604001514211801561121d57506000826040015114155b15611261576000826000015183604001516112389190611c65565b905082608001518360c001518261124f9190611a19565b6112599190611c65565b915050611298565b60008260000151426112739190611c65565b905082608001518360c001518261128a9190611a19565b6112949190611c65565b9150505b919050565b600033905090565b600080fd5b600073ffffffffffffffffffffffffffffffffffffffff82169050919050565b60006112d5826112aa565b9050919050565b6112e5816112ca565b81146112f057600080fd5b50565b600081359050611302816112dc565b92915050565b60006020828403121561131e5761131d6112a5565b5b600061132c848285016112f3565b91505092915050565b6000819050919050565b61134881611335565b82525050565b6000602082019050611363600083018461133f565b92915050565b61137281611335565b811461137d57600080fd5b50565b60008135905061138f81611369565b92915050565b600080600080608085870312156113af576113ae6112a5565b5b60006113bd878288016112f3565b94505060206113ce87828801611380565b93505060406113df87828801611380565b92505060606113f087828801611380565b91505092959194509250565b600061010082019050611412600083018b61133f565b61141f602083018a61133f565b61142c604083018961133f565b611439606083018861133f565b611446608083018761133f565b61145360a083018661133f565b61146060c083018561133f565b61146d60e083018461133f565b9998505050505050505050565b6000819050919050565b600061149f61149a611495846112aa565b61147a565b6112aa565b9050919050565b60006114b182611484565b9050919050565b60006114c3826114a6565b9050919050565b6114d3816114b8565b82525050565b60006020820190506114ee60008301846114ca565b92915050565b600082825260208201905092915050565b7f5265656e7472616e637947756172643a207265656e7472616e742063616c6c00600082015250565b600061153b601f836114f4565b915061154682611505565b602082019050919050565b6000602082019050818103600083015261156a8161152e565b9050919050565b7f5468657265206973206e6f207363686564756c652063757272656e746c79206960008201527f6e20666c69676874000000000000000000000000000000000000000000000000602082015250565b60006115cd6028836114f4565b91506115d882611571565b604082019050919050565b600060208201905081810360008301526115fc816115c0565b9050919050565b7f4e6f7468696e6720746f20776974686472617700000000000000000000000000600082015250565b60006116396013836114f4565b915061164482611603565b602082019050919050565b600060208201905081810360008301526116688161162c565b9050919050565b7f4e487b7100000000000000000000000000000000000000000000000000000000600052601160045260246000fd5b60006116a982611335565b91506116b483611335565b9250827fffffffffffffffffffffffffffffffffffffffffffffffffffffffffffffffff038211156116e9576116e861166f565b5b828201905092915050565b6116fd816112ca565b82525050565b600060408201905061171860008301856116f4565b611725602083018461133f565b9392505050565b60008115159050919050565b6117418161172c565b811461174c57600080fd5b50565b60008151905061175e81611738565b92915050565b60006020828403121561177a576117796112a5565b5b60006117888482850161174f565b91505092915050565b7f556e61626c6520746f207472616e7366657220746f6b656e7300000000000000600082015250565b60006117c76019836114f4565b91506117d282611791565b602082019050919050565b600060208201905081810360008301526117f6816117ba565b9050919050565b7f42656e65666963696172792063616e6e6f7420626520656d7074790000000000600082015250565b6000611833601b836114f4565b915061183e826117fd565b602082019050919050565b6000602082019050818103600083015261186281611826565b9050919050565b7f416d6f756e742063616e6e6f7420626520656d70747900000000000000000000600082015250565b600061189f6016836114f4565b91506118aa82611869565b602082019050919050565b600060208201905081810360008301526118ce81611892565b9050919050565b7f4475726174696f6e2063616e6e6f7420626520656d7074790000000000000000600082015250565b600061190b6018836114f4565b9150611916826118d5565b602082019050919050565b6000602082019050818103600083015261193a816118fe565b9050919050565b7f43616e206e6f742073657420746865206461746520696e207468652070617374600082015250565b60006119776020836114f4565b915061198282611941565b602082019050919050565b600060208201905081810360008301526119a68161196a565b9050919050565b7f5363686564756c6520616c726561647920657869737473000000000000000000600082015250565b60006119e36017836114f4565b91506119ee826119ad565b602082019050919050565b60006020820190508181036000830152611a12816119d6565b9050919050565b6000611a2482611335565b9150611a2f83611335565b9250817fffffffffffffffffffffffffffffffffffffffffffffffffffffffffffffffff0483118215151615611a6857611a6761166f565b5b828202905092915050565b7f4e487b7100000000000000000000000000000000000000000000000000000000600052601260045260246000fd5b6000611aad82611335565b9150611ab883611335565b925082611ac857611ac7611a73565b5b828204905092915050565b6000606082019050611ae860008301866116f4565b611af560208301856116f4565b611b02604083018461133f565b949350505050565b7f556e61626c6520746f207472616e7366657220746f6b656e7320746f2076657360008201527f74696e6720636f6e747261637400000000000000000000000000000000000000602082015250565b6000611b66602d836114f4565b9150611b7182611b0a565b604082019050919050565b60006020820190508181036000830152611b9581611b59565b9050919050565b7f5065726d697373696f6e2064656e696564000000000000000000000000000000600082015250565b6000611bd26011836114f4565b9150611bdd82611b9c565b602082019050919050565b60006020820190508181036000830152611c0181611bc5565b9050919050565b6000602082019050611c1d60008301846116f4565b92915050565b600081519050611c3281611369565b92915050565b600060208284031215611c4e57611c4d6112a5565b5b6000611c5c84828501611c23565b91505092915050565b6000611c7082611335565b9150611c7b83611335565b925082821015611c8e57611c8d61166f565b5b828203905092915050565b7f43616e206e6f742063616e63656c207477696365000000000000000000000000600082015250565b6000611ccf6014836114f4565b9150611cda82611c99565b602082019050919050565b60006020820190508181036000830152611cfe81611cc2565b9050919050565b7f56657374696e6720697320616c72656164792066696e69736865640000000000600082015250565b6000611d3b601b836114f4565b9150611d4682611d05565b602082019050919050565b60006020820190508181036000830152611d6a81611d2e565b9050919050565b6000604082019050611d86600083018561133f565b611d93602083018461133f565b939250505056fea264697066735822122017c56dccee198fd1beba1883321603cfd1063304271159e5db940c4604fb4d5264736f6c63430008090033",
  "immutableReferences": {},
  "source": "// SPDX-License-Identifier: MIT\n\npragma solidity ^0.8.0;\n\nimport \"@openzeppelin/contracts/token/ERC20/ERC20.sol\";\nimport \"@openzeppelin/contracts/security/ReentrancyGuard.sol\";\n\ncontract AAGVestingContract is ReentrancyGuard, Context {\n  event ScheduleCreated(address indexed _beneficiary, uint256 indexed _amount, uint256 indexed _startTimestamp, uint256 _duration);\n\n  event ScheduleCancelled(address indexed _beneficiary, address indexed _cancelledBy, uint256 _remainingBalance, uint256 _canceledTimestamp);\n\n  event Withdraw(address indexed _beneficiary, uint256 indexed _amount, uint256 indexed _time);\n\n  struct Schedule {\n    uint256 startTimestamp;\n    uint256 endTimestamp;\n    uint256 canceledTimestamp;\n    uint256 amount;\n    uint256 totalDrawn;\n    uint256 lastDrawnAt;\n    uint256 withdrawRate;\n  }\n\n  // Vested address to its schedule\n  mapping(address => Schedule) private vestingSchedule;\n\n  // AAG token contract\n  IERC20 public token;\n  address private admin;\n  uint256 private constant ONE_DAY_IN_SECONDS = 1 days;\n\n  constructor(IERC20 _token, address _admin) {\n    require(address(_token) != address(0));\n    token = _token;\n    admin = _admin;\n  }\n\n  // Create vesting schedule\n  function createVestingSchedule(\n    address _beneficiary,\n    uint256 _amount,\n    uint256 _startTimestamp,\n    uint256 _durationInDays\n  ) public {\n    require(_beneficiary != address(0), \"Beneficiary cannot be empty\");\n    require(_amount > 0, \"Amount cannot be empty\");\n    require(_durationInDays > 0, \"Duration cannot be empty\");\n    require(_startTimestamp > block.timestamp, \"Can not set the date in the past\");\n    // Ensure one per address\n    require(vestingSchedule[_beneficiary].amount == 0, \"Schedule already exists\");\n\n    // Create schedule\n    uint256 _durationInSecs = _durationInDays * ONE_DAY_IN_SECONDS;\n    vestingSchedule[_beneficiary] = Schedule({\n      startTimestamp: _startTimestamp,\n      endTimestamp: _startTimestamp + _durationInSecs,\n      canceledTimestamp: 0,\n      amount: _amount,\n      totalDrawn: 0,\n      lastDrawnAt: 0,\n      withdrawRate: _amount / _durationInSecs\n    });\n\n    emit ScheduleCreated(_beneficiary, _amount, vestingSchedule[_beneficiary].startTimestamp, _durationInDays);\n\n    // Transfer tokens in the vesting contract on behalf of the beneficiary\n    require(token.transferFrom(_msgSender(), address(this), _amount), \"Unable to transfer tokens to vesting contract\");\n  }\n\n  // Cancel vesting schedule for beneficiary\n  function cancelVestingForBeneficiary(address _beneficiary) public onlyAdmin {\n    Schedule storage item = vestingSchedule[_beneficiary];\n    require(item.canceledTimestamp == 0, \"Can not cancel twice\");\n    require(item.endTimestamp > block.timestamp, \"Vesting is already finished\");\n\n    uint256 availableAmount = getAvailableWithdrawAmountForSchedule(item);\n\n    item.canceledTimestamp = block.timestamp;\n\n    uint256 finalAmountForBeneficiary = availableAmount + item.totalDrawn;\n    uint256 amountToRetrieveToOwner = item.amount - finalAmountForBeneficiary;\n\n    // Set final amount for beneficiary\n    item.amount = finalAmountForBeneficiary;\n\n    // Return unvested tokens to owner\n    require(token.transfer(admin, amountToRetrieveToOwner), \"Unable to transfer tokens\");\n\n    emit ScheduleCancelled(_beneficiary, _msgSender(), availableAmount, vestingSchedule[_beneficiary].canceledTimestamp);\n  }\n\n  // Emergency withdrawal (Whole balance)\n  function emergencyWithdrawAllTokens() public onlyAdmin {\n    uint256 balance = token.balanceOf(address(this));\n    // Return all tokens to the owner\n    require(token.transfer(admin, balance), \"Unable to transfer tokens\");\n  }\n\n  function withdraw() external nonReentrant {\n    Schedule memory schedule = vestingSchedule[_msgSender()];\n    require(schedule.amount > 0, \"There is no schedule currently in flight\");\n\n    // available right now\n    uint256 amount = getAvailableWithdrawAmountForSchedule(schedule);\n    require(amount > 0, \"Nothing to withdraw\");\n\n    // Update last drawn to now\n    vestingSchedule[_msgSender()].lastDrawnAt = block.timestamp;\n\n    // Increase total drawn amount\n    vestingSchedule[_msgSender()].totalDrawn = schedule.totalDrawn + amount;\n\n    // Issue tokens to beneficiary\n    require(token.transfer(_msgSender(), amount), \"Unable to transfer tokens\");\n\n    emit Withdraw(_msgSender(), amount, block.timestamp);\n  }\n\n  // Accessors\n  function tokenBalance() external view returns (uint256) {\n    return token.balanceOf(address(this));\n  }\n\n  function vestingScheduleForBeneficiary(address _beneficiary)\n    external\n    view\n    returns (\n      uint256 _startTimestamp,\n      uint256 _endTimestamp,\n      uint256 _canceledTimestamp,\n      uint256 _amount,\n      uint256 _totalDrawn,\n      uint256 _lastDrawnAt,\n      uint256 _withdrawRate,\n      uint256 _remainingBalance\n    )\n  {\n    Schedule memory schedule = vestingSchedule[_beneficiary];\n    return (\n      schedule.startTimestamp,\n      schedule.endTimestamp,\n      schedule.canceledTimestamp,\n      schedule.amount,\n      schedule.totalDrawn,\n      schedule.lastDrawnAt,\n      schedule.withdrawRate,\n      schedule.amount - schedule.totalDrawn\n    );\n  }\n\n  function getAvailableWithdrawAmountForAddress(address _beneficiary) external view returns (uint256 _amount) {\n    Schedule memory schedule = vestingSchedule[_beneficiary];\n    return getAvailableWithdrawAmountForSchedule(schedule);\n  }\n\n  function getAvailableWithdrawAmountForSchedule(Schedule memory _schedule) internal view returns (uint256 _amount) {\n    // Vesting haven't started\n    if (block.timestamp <= _schedule.startTimestamp) {\n      return 0;\n    }\n\n    // Ended\n    if (block.timestamp > _schedule.endTimestamp && _schedule.canceledTimestamp == 0) {\n      return _schedule.amount - _schedule.totalDrawn;\n    }\n\n    // Canceled\n    if (block.timestamp > _schedule.canceledTimestamp && _schedule.canceledTimestamp != 0) {\n      uint256 timeVestedSinceCanceled = _schedule.canceledTimestamp - _schedule.startTimestamp;\n      return timeVestedSinceCanceled * _schedule.withdrawRate - _schedule.totalDrawn;\n    }\n\n    // Active\n    uint256 timePassedFromVestingStart = block.timestamp - _schedule.startTimestamp;\n    return timePassedFromVestingStart * _schedule.withdrawRate - _schedule.totalDrawn;\n  }\n\n  // AAG Access modifier\n\n  modifier onlyAdmin() {\n    require(_msgSender() == admin, \"Permission denied\");\n    _;\n  }\n}\n",
  "sourcePath": "/Users/mariussilenskis/AAGDevelopment/aag-token/contracts/AAGVestingContract.sol",
  "compiler": {
    "name": "solc",
    "version": "0.8.9+commit.e5eed63a.Emscripten.clang"
  },
  "schemaVersion": "3.2.3",
  "updatedAt": "2021-10-19T21:27:01.361Z",
  "devdoc": {
    "kind": "dev",
    "methods": {},
    "version": 1
  },
  "userdoc": {
    "kind": "user",
    "methods": {},
    "version": 1
  }
}