{
  "contractName": "AAGVestingContract",
  "abi": [
    {
      "inputs": [
        {
          "internalType": "contract IERC20",
          "name": "_token",
          "type": "address"
        },
        {
          "internalType": "address",
          "name": "_admin",
          "type": "address"
        }
      ],
      "stateMutability": "nonpayable",
      "type": "constructor"
    },
    {
      "anonymous": false,
      "inputs": [
        {
          "indexed": true,
          "internalType": "address",
          "name": "_beneficiary",
          "type": "address"
        },
        {
          "indexed": true,
          "internalType": "address",
          "name": "_cancelledBy",
          "type": "address"
        },
        {
          "indexed": false,
          "internalType": "uint256",
          "name": "_remainingBalance",
          "type": "uint256"
        },
        {
          "indexed": false,
          "internalType": "uint256",
          "name": "_canceledTimestamp",
          "type": "uint256"
        }
      ],
      "name": "ScheduleCancelled",
      "type": "event"
    },
    {
      "anonymous": false,
      "inputs": [
        {
          "indexed": true,
          "internalType": "address",
          "name": "_beneficiary",
          "type": "address"
        },
        {
          "indexed": true,
          "internalType": "uint256",
          "name": "_amount",
          "type": "uint256"
        },
        {
          "indexed": true,
          "internalType": "uint256",
          "name": "_startTimestamp",
          "type": "uint256"
        },
        {
          "indexed": false,
          "internalType": "uint256",
          "name": "_duration",
          "type": "uint256"
        }
      ],
      "name": "ScheduleCreated",
      "type": "event"
    },
    {
      "anonymous": false,
      "inputs": [
        {
          "indexed": true,
          "internalType": "address",
          "name": "_beneficiary",
          "type": "address"
        },
        {
          "indexed": true,
          "internalType": "uint256",
          "name": "_amount",
          "type": "uint256"
        },
        {
          "indexed": true,
          "internalType": "uint256",
          "name": "_time",
          "type": "uint256"
        }
      ],
      "name": "Withdraw",
      "type": "event"
    },
    {
      "inputs": [],
      "name": "ONE_DAY_IN_SECONDS",
      "outputs": [
        {
          "internalType": "uint256",
          "name": "",
          "type": "uint256"
        }
      ],
      "stateMutability": "view",
      "type": "function"
    },
    {
      "inputs": [],
      "name": "token",
      "outputs": [
        {
          "internalType": "contract IERC20",
          "name": "",
          "type": "address"
        }
      ],
      "stateMutability": "view",
      "type": "function"
    },
    {
      "inputs": [
        {
          "internalType": "address",
          "name": "",
          "type": "address"
        }
      ],
      "name": "vestingSchedule",
      "outputs": [
        {
          "internalType": "uint256",
          "name": "startTimestamp",
          "type": "uint256"
        },
        {
          "internalType": "uint256",
          "name": "endTimestamp",
          "type": "uint256"
        },
        {
          "internalType": "uint256",
          "name": "canceledTimestamp",
          "type": "uint256"
        },
        {
          "internalType": "uint256",
          "name": "amount",
          "type": "uint256"
        },
        {
          "internalType": "uint256",
          "name": "totalDrawn",
          "type": "uint256"
        },
        {
          "internalType": "uint256",
          "name": "lastDrawnAt",
          "type": "uint256"
        },
        {
          "internalType": "uint256",
          "name": "withdrawRate",
          "type": "uint256"
        }
      ],
      "stateMutability": "view",
      "type": "function"
    },
    {
      "inputs": [
        {
          "internalType": "address",
          "name": "_beneficiary",
          "type": "address"
        },
        {
          "internalType": "uint256",
          "name": "_amount",
          "type": "uint256"
        },
        {
          "internalType": "uint256",
          "name": "_startTimestamp",
          "type": "uint256"
        },
        {
          "internalType": "uint256",
          "name": "_durationInDays",
          "type": "uint256"
        }
      ],
      "name": "createVestingSchedule",
      "outputs": [],
      "stateMutability": "nonpayable",
      "type": "function"
    },
    {
      "inputs": [
        {
          "internalType": "address",
          "name": "_beneficiary",
          "type": "address"
        }
      ],
      "name": "cancelVestingForBeneficiary",
      "outputs": [],
      "stateMutability": "nonpayable",
      "type": "function"
    },
    {
      "inputs": [],
      "name": "emergencyWithdrawAllTokens",
      "outputs": [],
      "stateMutability": "nonpayable",
      "type": "function"
    },
    {
      "inputs": [],
      "name": "withdraw",
      "outputs": [],
      "stateMutability": "nonpayable",
      "type": "function"
    },
    {
      "inputs": [],
      "name": "tokenBalance",
      "outputs": [
        {
          "internalType": "uint256",
          "name": "",
          "type": "uint256"
        }
      ],
      "stateMutability": "view",
      "type": "function"
    },
    {
      "inputs": [
        {
          "internalType": "address",
          "name": "_beneficiary",
          "type": "address"
        }
      ],
      "name": "vestingScheduleForBeneficiary",
      "outputs": [
        {
          "internalType": "uint256",
          "name": "_startTimestamp",
          "type": "uint256"
        },
        {
          "internalType": "uint256",
          "name": "_endTimestamp",
          "type": "uint256"
        },
        {
          "internalType": "uint256",
          "name": "_canceledTimestamp",
          "type": "uint256"
        },
        {
          "internalType": "uint256",
          "name": "_amount",
          "type": "uint256"
        },
        {
          "internalType": "uint256",
          "name": "_totalDrawn",
          "type": "uint256"
        },
        {
          "internalType": "uint256",
          "name": "_lastDrawnAt",
          "type": "uint256"
        },
        {
          "internalType": "uint256",
          "name": "_withdrawRate",
          "type": "uint256"
        },
        {
          "internalType": "uint256",
          "name": "_remainingBalance",
          "type": "uint256"
        }
      ],
      "stateMutability": "view",
      "type": "function"
    },
    {
      "inputs": [
        {
          "internalType": "address",
          "name": "_beneficiary",
          "type": "address"
        }
      ],
      "name": "getAvailableWithdrawAmountForAddress",
      "outputs": [
        {
          "internalType": "uint256",
          "name": "_amount",
          "type": "uint256"
        }
      ],
      "stateMutability": "view",
      "type": "function"
    },
    {
      "inputs": [
        {
          "components": [
            {
              "internalType": "uint256",
              "name": "startTimestamp",
              "type": "uint256"
            },
            {
              "internalType": "uint256",
              "name": "endTimestamp",
              "type": "uint256"
            },
            {
              "internalType": "uint256",
              "name": "canceledTimestamp",
              "type": "uint256"
            },
            {
              "internalType": "uint256",
              "name": "amount",
              "type": "uint256"
            },
            {
              "internalType": "uint256",
              "name": "totalDrawn",
              "type": "uint256"
            },
            {
              "internalType": "uint256",
              "name": "lastDrawnAt",
              "type": "uint256"
            },
            {
              "internalType": "uint256",
              "name": "withdrawRate",
              "type": "uint256"
            }
          ],
          "internalType": "struct AAGVestingContract.Schedule",
          "name": "_schedule",
          "type": "tuple"
        }
      ],
      "name": "getAvailableWithdrawAmountForSchedule",
      "outputs": [
        {
          "internalType": "uint256",
          "name": "_amount",
          "type": "uint256"
        }
      ],
      "stateMutability": "view",
      "type": "function"
    }
  ],
  "bytecode": "0x60806040523480156200001157600080fd5b50604051620025c3380380620025c38339818101604052810190620000379190620001b3565b6001600081905550600073ffffffffffffffffffffffffffffffffffffffff168273ffffffffffffffffffffffffffffffffffffffff1614156200007a57600080fd5b81600260006101000a81548173ffffffffffffffffffffffffffffffffffffffff021916908373ffffffffffffffffffffffffffffffffffffffff16021790555080600360006101000a81548173ffffffffffffffffffffffffffffffffffffffff021916908373ffffffffffffffffffffffffffffffffffffffff1602179055505050620001fa565b600080fd5b600073ffffffffffffffffffffffffffffffffffffffff82169050919050565b6000620001368262000109565b9050919050565b60006200014a8262000129565b9050919050565b6200015c816200013d565b81146200016857600080fd5b50565b6000815190506200017c8162000151565b92915050565b6200018d8162000129565b81146200019957600080fd5b50565b600081519050620001ad8162000182565b92915050565b60008060408385031215620001cd57620001cc62000104565b5b6000620001dd858286016200016b565b9250506020620001f0858286016200019c565b9150509250929050565b6123b9806200020a6000396000f3fe608060405234801561001057600080fd5b50600436106100a95760003560e01c80638a5cc320116100715780638a5cc3201461013e5780639e1a4d191461015c578063c570b8351461017a578063efacabf0146101b1578063fc0c546a146101cd578063ffff6b04146101eb576100a9565b8063324d2f68146100ae5780633ccfd60b146100de5780633f4e8e80146100e85780635624dfc614610104578063685364b61461010e575b600080fd5b6100c860048036038101906100c3919061152f565b610221565b6040516100d59190611575565b60405180910390f35b6100e6610347565b005b61010260048036038101906100fd91906115bc565b61073f565b005b61010c610b73565b005b61012860048036038101906101239190611768565b610dcc565b6040516101359190611575565b60405180910390f35b610146610eb1565b6040516101539190611575565b60405180910390f35b610164610eb8565b6040516101719190611575565b60405180910390f35b610194600480360381019061018f919061152f565b610f6a565b6040516101a8989796959493929190611795565b60405180910390f35b6101cb60048036038101906101c6919061152f565b61105d565b005b6101d5611452565b6040516101e29190611872565b60405180910390f35b6102056004803603810190610200919061152f565b611478565b604051610218979695949392919061188d565b60405180910390f35b600080600160008473ffffffffffffffffffffffffffffffffffffffff1673ffffffffffffffffffffffffffffffffffffffff1681526020019081526020016000206040518060e001604052908160008201548152602001600182015481526020016002820154815260200160038201548152602001600482015481526020016005820154815260200160068201548152505090503073ffffffffffffffffffffffffffffffffffffffff1663685364b6826040518263ffffffff1660e01b81526004016102ef9190611999565b60206040518083038186803b15801561030757600080fd5b505afa15801561031b573d6000803e3d6000fd5b505050506040513d601f19601f8201168201806040525081019061033f91906119c9565b915050919050565b6002600054141561038d576040517f08c379a000000000000000000000000000000000000000000000000000000000815260040161038490611a53565b60405180910390fd5b60026000819055506000600160006103a36114ba565b73ffffffffffffffffffffffffffffffffffffffff1673ffffffffffffffffffffffffffffffffffffffff1681526020019081526020016000206040518060e001604052908160008201548152602001600182015481526020016002820154815260200160038201548152602001600482015481526020016005820154815260200160068201548152505090506000816060015111610477576040517f08c379a000000000000000000000000000000000000000000000000000000000815260040161046e90611ae5565b60405180910390fd5b60003073ffffffffffffffffffffffffffffffffffffffff1663685364b6836040518263ffffffff1660e01b81526004016104b29190611999565b60206040518083038186803b1580156104ca57600080fd5b505afa1580156104de573d6000803e3d6000fd5b505050506040513d601f19601f8201168201806040525081019061050291906119c9565b905060008111610547576040517f08c379a000000000000000000000000000000000000000000000000000000000815260040161053e90611b51565b60405180910390fd5b42600160006105546114ba565b73ffffffffffffffffffffffffffffffffffffffff1673ffffffffffffffffffffffffffffffffffffffff168152602001908152602001600020600501819055508082608001516105a59190611ba0565b600160006105b16114ba565b73ffffffffffffffffffffffffffffffffffffffff1673ffffffffffffffffffffffffffffffffffffffff16815260200190815260200160002060040181905550600260009054906101000a900473ffffffffffffffffffffffffffffffffffffffff1673ffffffffffffffffffffffffffffffffffffffff1663a9059cbb6106386114ba565b836040518363ffffffff1660e01b8152600401610656929190611c05565b602060405180830381600087803b15801561067057600080fd5b505af1158015610684573d6000803e3d6000fd5b505050506040513d601f19601f820116820180604052508101906106a89190611c66565b6106e7576040517f08c379a00000000000000000000000000000000000000000000000000000000081526004016106de90611cdf565b60405180910390fd5b42816106f16114ba565b73ffffffffffffffffffffffffffffffffffffffff167ff279e6a1f5e320cca91135676d9cb6e44ca8a08c0b88342bcdb1144f6511b56860405160405180910390a450506001600081905550565b600073ffffffffffffffffffffffffffffffffffffffff168473ffffffffffffffffffffffffffffffffffffffff1614156107af576040517f08c379a00000000000000000000000000000000000000000000000000000000081526004016107a690611d4b565b60405180910390fd5b600083116107f2576040517f08c379a00000000000000000000000000000000000000000000000000000000081526004016107e990611db7565b60405180910390fd5b60008111610835576040517f08c379a000000000000000000000000000000000000000000000000000000000815260040161082c90611e23565b60405180910390fd5b428211610877576040517f08c379a000000000000000000000000000000000000000000000000000000000815260040161086e90611e8f565b60405180910390fd5b6000600160008673ffffffffffffffffffffffffffffffffffffffff1673ffffffffffffffffffffffffffffffffffffffff16815260200190815260200160002060030154146108fc576040517f08c379a00000000000000000000000000000000000000000000000000000000081526004016108f390611efb565b60405180910390fd5b6000620151808261090d9190611f1b565b90506040518060e00160405280848152602001828561092c9190611ba0565b815260200160008152602001858152602001600081526020016000815260200182866109589190611fa4565b815250600160008773ffffffffffffffffffffffffffffffffffffffff1673ffffffffffffffffffffffffffffffffffffffff168152602001908152602001600020600082015181600001556020820151816001015560408201518160020155606082015181600301556080820151816004015560a0820151816005015560c08201518160060155905050600160008673ffffffffffffffffffffffffffffffffffffffff1673ffffffffffffffffffffffffffffffffffffffff16815260200190815260200160002060000154848673ffffffffffffffffffffffffffffffffffffffff167f5ab0cb75fe24f04dbfe14b847f8579bc91baa153ee5b2758fcfa59f33675b16285604051610a6d9190611575565b60405180910390a4600260009054906101000a900473ffffffffffffffffffffffffffffffffffffffff1673ffffffffffffffffffffffffffffffffffffffff166323b872dd610abb6114ba565b30876040518463ffffffff1660e01b8152600401610adb93929190611fd5565b602060405180830381600087803b158015610af557600080fd5b505af1158015610b09573d6000803e3d6000fd5b505050506040513d601f19601f82011682018060405250810190610b2d9190611c66565b610b6c576040517f08c379a0000000000000000000000000000000000000000000000000000000008152600401610b639061207e565b60405180910390fd5b5050505050565b600360009054906101000a900473ffffffffffffffffffffffffffffffffffffffff1673ffffffffffffffffffffffffffffffffffffffff16610bb46114ba565b73ffffffffffffffffffffffffffffffffffffffff1614610c0a576040517f08c379a0000000000000000000000000000000000000000000000000000000008152600401610c01906120ea565b60405180910390fd5b6000600260009054906101000a900473ffffffffffffffffffffffffffffffffffffffff1673ffffffffffffffffffffffffffffffffffffffff166370a08231306040518263ffffffff1660e01b8152600401610c67919061210a565b60206040518083038186803b158015610c7f57600080fd5b505afa158015610c93573d6000803e3d6000fd5b505050506040513d601f19601f82011682018060405250810190610cb791906119c9565b9050600260009054906101000a900473ffffffffffffffffffffffffffffffffffffffff1673ffffffffffffffffffffffffffffffffffffffff1663a9059cbb600360009054906101000a900473ffffffffffffffffffffffffffffffffffffffff16836040518363ffffffff1660e01b8152600401610d38929190611c05565b602060405180830381600087803b158015610d5257600080fd5b505af1158015610d66573d6000803e3d6000fd5b505050506040513d601f19601f82011682018060405250810190610d8a9190611c66565b610dc9576040517f08c379a0000000000000000000000000000000000000000000000000000000008152600401610dc090611cdf565b60405180910390fd5b50565b600081600001514211610de25760009050610eac565b816020015142118015610df9575060008260400151145b15610e195781608001518260600151610e129190612125565b9050610eac565b816040015142118015610e3157506000826040015114155b15610e7557600082600001518360400151610e4c9190612125565b905082608001518360c0015182610e639190611f1b565b610e6d9190612125565b915050610eac565b6000826000015142610e879190612125565b905082608001518360c0015182610e9e9190611f1b565b610ea89190612125565b9150505b919050565b6201518081565b6000600260009054906101000a900473ffffffffffffffffffffffffffffffffffffffff1673ffffffffffffffffffffffffffffffffffffffff166370a08231306040518263ffffffff1660e01b8152600401610f15919061210a565b60206040518083038186803b158015610f2d57600080fd5b505afa158015610f41573d6000803e3d6000fd5b505050506040513d601f19601f82011682018060405250810190610f6591906119c9565b905090565b6000806000806000806000806000600160008b73ffffffffffffffffffffffffffffffffffffffff1673ffffffffffffffffffffffffffffffffffffffff1681526020019081526020016000206040518060e00160405290816000820154815260200160018201548152602001600282015481526020016003820154815260200160048201548152602001600582015481526020016006820154815250509050806000015181602001518260400151836060015184608001518560a001518660c00151876080015188606001516110419190612125565b9850985098509850985098509850985050919395975091939597565b600360009054906101000a900473ffffffffffffffffffffffffffffffffffffffff1673ffffffffffffffffffffffffffffffffffffffff1661109e6114ba565b73ffffffffffffffffffffffffffffffffffffffff16146110f4576040517f08c379a00000000000000000000000000000000000000000000000000000000081526004016110eb906120ea565b60405180910390fd5b6000600160008373ffffffffffffffffffffffffffffffffffffffff1673ffffffffffffffffffffffffffffffffffffffff1681526020019081526020016000209050600081600201541461117e576040517f08c379a0000000000000000000000000000000000000000000000000000000008152600401611175906121a5565b60405180910390fd5b428160010154116111c4576040517f08c379a00000000000000000000000000000000000000000000000000000000081526004016111bb90612211565b60405180910390fd5b60003073ffffffffffffffffffffffffffffffffffffffff1663685364b6836040518263ffffffff1660e01b81526004016111ff919061233f565b60206040518083038186803b15801561121757600080fd5b505afa15801561122b573d6000803e3d6000fd5b505050506040513d601f19601f8201168201806040525081019061124f91906119c9565b9050428260020181905550600082600401548261126c9190611ba0565b905060008184600301546112809190612125565b9050818460030181905550600260009054906101000a900473ffffffffffffffffffffffffffffffffffffffff1673ffffffffffffffffffffffffffffffffffffffff1663a9059cbb600360009054906101000a900473ffffffffffffffffffffffffffffffffffffffff16836040518363ffffffff1660e01b815260040161130a929190611c05565b602060405180830381600087803b15801561132457600080fd5b505af1158015611338573d6000803e3d6000fd5b505050506040513d601f19601f8201168201806040525081019061135c9190611c66565b61139b576040517f08c379a000000000000000000000000000000000000000000000000000000000815260040161139290611cdf565b60405180910390fd5b6113a36114ba565b73ffffffffffffffffffffffffffffffffffffffff168573ffffffffffffffffffffffffffffffffffffffff167fbc2075d9ef107583b6d08c65185a920ae48465167bcc8d1a42829d206a894d1a85600160008a73ffffffffffffffffffffffffffffffffffffffff1673ffffffffffffffffffffffffffffffffffffffff1681526020019081526020016000206002015460405161144392919061235a565b60405180910390a35050505050565b600260009054906101000a900473ffffffffffffffffffffffffffffffffffffffff1681565b60016020528060005260406000206000915090508060000154908060010154908060020154908060030154908060040154908060050154908060060154905087565b600033905090565b6000604051905090565b600080fd5b600073ffffffffffffffffffffffffffffffffffffffff82169050919050565b60006114fc826114d1565b9050919050565b61150c816114f1565b811461151757600080fd5b50565b60008135905061152981611503565b92915050565b600060208284031215611545576115446114cc565b5b60006115538482850161151a565b91505092915050565b6000819050919050565b61156f8161155c565b82525050565b600060208201905061158a6000830184611566565b92915050565b6115998161155c565b81146115a457600080fd5b50565b6000813590506115b681611590565b92915050565b600080600080608085870312156115d6576115d56114cc565b5b60006115e48782880161151a565b94505060206115f5878288016115a7565b9350506040611606878288016115a7565b9250506060611617878288016115a7565b91505092959194509250565b600080fd5b6000601f19601f8301169050919050565b7f4e487b7100000000000000000000000000000000000000000000000000000000600052604160045260246000fd5b61167182611628565b810181811067ffffffffffffffff821117156116905761168f611639565b5b80604052505050565b60006116a36114c2565b90506116af8282611668565b919050565b600060e082840312156116ca576116c9611623565b5b6116d460e0611699565b905060006116e4848285016115a7565b60008301525060206116f8848285016115a7565b602083015250604061170c848285016115a7565b6040830152506060611720848285016115a7565b6060830152506080611734848285016115a7565b60808301525060a0611748848285016115a7565b60a08301525060c061175c848285016115a7565b60c08301525092915050565b600060e0828403121561177e5761177d6114cc565b5b600061178c848285016116b4565b91505092915050565b6000610100820190506117ab600083018b611566565b6117b8602083018a611566565b6117c56040830189611566565b6117d26060830188611566565b6117df6080830187611566565b6117ec60a0830186611566565b6117f960c0830185611566565b61180660e0830184611566565b9998505050505050505050565b6000819050919050565b600061183861183361182e846114d1565b611813565b6114d1565b9050919050565b600061184a8261181d565b9050919050565b600061185c8261183f565b9050919050565b61186c81611851565b82525050565b60006020820190506118876000830184611863565b92915050565b600060e0820190506118a2600083018a611566565b6118af6020830189611566565b6118bc6040830188611566565b6118c96060830187611566565b6118d66080830186611566565b6118e360a0830185611566565b6118f060c0830184611566565b98975050505050505050565b6119058161155c565b82525050565b60e08201600082015161192160008501826118fc565b50602082015161193460208501826118fc565b50604082015161194760408501826118fc565b50606082015161195a60608501826118fc565b50608082015161196d60808501826118fc565b5060a082015161198060a08501826118fc565b5060c082015161199360c08501826118fc565b50505050565b600060e0820190506119ae600083018461190b565b92915050565b6000815190506119c381611590565b92915050565b6000602082840312156119df576119de6114cc565b5b60006119ed848285016119b4565b91505092915050565b600082825260208201905092915050565b7f5265656e7472616e637947756172643a207265656e7472616e742063616c6c00600082015250565b6000611a3d601f836119f6565b9150611a4882611a07565b602082019050919050565b60006020820190508181036000830152611a6c81611a30565b9050919050565b7f5468657265206973206e6f207363686564756c652063757272656e746c79206960008201527f6e20666c69676874000000000000000000000000000000000000000000000000602082015250565b6000611acf6028836119f6565b9150611ada82611a73565b604082019050919050565b60006020820190508181036000830152611afe81611ac2565b9050919050565b7f4e6f7468696e6720746f20776974686472617700000000000000000000000000600082015250565b6000611b3b6013836119f6565b9150611b4682611b05565b602082019050919050565b60006020820190508181036000830152611b6a81611b2e565b9050919050565b7f4e487b7100000000000000000000000000000000000000000000000000000000600052601160045260246000fd5b6000611bab8261155c565b9150611bb68361155c565b9250827fffffffffffffffffffffffffffffffffffffffffffffffffffffffffffffffff03821115611beb57611bea611b71565b5b828201905092915050565b611bff816114f1565b82525050565b6000604082019050611c1a6000830185611bf6565b611c276020830184611566565b9392505050565b60008115159050919050565b611c4381611c2e565b8114611c4e57600080fd5b50565b600081519050611c6081611c3a565b92915050565b600060208284031215611c7c57611c7b6114cc565b5b6000611c8a84828501611c51565b91505092915050565b7f556e61626c6520746f207472616e7366657220746f6b656e7300000000000000600082015250565b6000611cc96019836119f6565b9150611cd482611c93565b602082019050919050565b60006020820190508181036000830152611cf881611cbc565b9050919050565b7f42656e65666963696172792063616e6e6f7420626520656d7074790000000000600082015250565b6000611d35601b836119f6565b9150611d4082611cff565b602082019050919050565b60006020820190508181036000830152611d6481611d28565b9050919050565b7f416d6f756e742063616e6e6f7420626520656d70747900000000000000000000600082015250565b6000611da16016836119f6565b9150611dac82611d6b565b602082019050919050565b60006020820190508181036000830152611dd081611d94565b9050919050565b7f4475726174696f6e2063616e6e6f7420626520656d7074790000000000000000600082015250565b6000611e0d6018836119f6565b9150611e1882611dd7565b602082019050919050565b60006020820190508181036000830152611e3c81611e00565b9050919050565b7f43616e206e6f742073657420746865206461746520696e207468652070617374600082015250565b6000611e796020836119f6565b9150611e8482611e43565b602082019050919050565b60006020820190508181036000830152611ea881611e6c565b9050919050565b7f5363686564756c6520616c726561647920657869737473000000000000000000600082015250565b6000611ee56017836119f6565b9150611ef082611eaf565b602082019050919050565b60006020820190508181036000830152611f1481611ed8565b9050919050565b6000611f268261155c565b9150611f318361155c565b9250817fffffffffffffffffffffffffffffffffffffffffffffffffffffffffffffffff0483118215151615611f6a57611f69611b71565b5b828202905092915050565b7f4e487b7100000000000000000000000000000000000000000000000000000000600052601260045260246000fd5b6000611faf8261155c565b9150611fba8361155c565b925082611fca57611fc9611f75565b5b828204905092915050565b6000606082019050611fea6000830186611bf6565b611ff76020830185611bf6565b6120046040830184611566565b949350505050565b7f556e61626c6520746f207472616e7366657220746f6b656e7320746f2076657360008201527f74696e6720636f6e747261637400000000000000000000000000000000000000602082015250565b6000612068602d836119f6565b91506120738261200c565b604082019050919050565b600060208201905081810360008301526120978161205b565b9050919050565b7f5065726d697373696f6e2064656e696564000000000000000000000000000000600082015250565b60006120d46011836119f6565b91506120df8261209e565b602082019050919050565b60006020820190508181036000830152612103816120c7565b9050919050565b600060208201905061211f6000830184611bf6565b92915050565b60006121308261155c565b915061213b8361155c565b92508282101561214e5761214d611b71565b5b828203905092915050565b7f43616e206e6f742063616e63656c207477696365000000000000000000000000600082015250565b600061218f6014836119f6565b915061219a82612159565b602082019050919050565b600060208201905081810360008301526121be81612182565b9050919050565b7f56657374696e6720697320616c72656164792066696e69736865640000000000600082015250565b60006121fb601b836119f6565b9150612206826121c5565b602082019050919050565b6000602082019050818103600083015261222a816121ee565b9050919050565b60008160001c9050919050565b6000819050919050565b600061225b61225683612231565b61223e565b9050919050565b60e08201600080830154905061227781612248565b61228460008601826118fc565b506001830154905061229581612248565b6122a260208601826118fc565b50600283015490506122b381612248565b6122c060408601826118fc565b50600383015490506122d181612248565b6122de60608601826118fc565b50600483015490506122ef81612248565b6122fc60808601826118fc565b506005830154905061230d81612248565b61231a60a08601826118fc565b506006830154905061232b81612248565b61233860c08601826118fc565b5050505050565b600060e0820190506123546000830184612262565b92915050565b600060408201905061236f6000830185611566565b61237c6020830184611566565b939250505056fea26469706673582212206c7ec3474a819d69bfb57c38ee24cf59d6e0b0069ec9aef8f9cc3b9f68b9bbd364736f6c63430008090033",
  "immutableReferences": {},
  "source": "// SPDX-License-Identifier: MIT\n\npragma solidity ^0.8.0;\n\nimport \"@openzeppelin/contracts/token/ERC20/ERC20.sol\";\nimport \"@openzeppelin/contracts/security/ReentrancyGuard.sol\";\n\ncontract AAGVestingContract is ReentrancyGuard, Context {\n  event ScheduleCreated(address indexed _beneficiary, uint256 indexed _amount, uint256 indexed _startTimestamp, uint256 _duration);\n\n  event ScheduleCancelled(address indexed _beneficiary, address indexed _cancelledBy, uint256 _remainingBalance, uint256 _canceledTimestamp);\n\n  event Withdraw(address indexed _beneficiary, uint256 indexed _amount, uint256 indexed _time);\n\n  struct Schedule {\n    uint256 startTimestamp;\n    uint256 endTimestamp;\n    uint256 canceledTimestamp;\n    uint256 amount;\n    uint256 totalDrawn;\n    uint256 lastDrawnAt;\n    uint256 withdrawRate;\n  }\n\n  // Vested address to its schedule\n  mapping(address => Schedule) public vestingSchedule;\n\n  // AAG token contract\n  IERC20 public token;\n  address private admin;\n  uint256 public constant ONE_DAY_IN_SECONDS = 1 days;\n\n  constructor(IERC20 _token, address _admin) {\n    require(address(_token) != address(0));\n    token = _token;\n    admin = _admin;\n  }\n\n  // Create vesting schedule\n  function createVestingSchedule(\n    address _beneficiary,\n    uint256 _amount,\n    uint256 _startTimestamp,\n    uint256 _durationInDays\n  ) public {\n    require(_beneficiary != address(0), \"Beneficiary cannot be empty\");\n    require(_amount > 0, \"Amount cannot be empty\");\n    require(_durationInDays > 0, \"Duration cannot be empty\");\n    require(_startTimestamp > block.timestamp, \"Can not set the date in the past\");\n    // Ensure one per address\n    require(vestingSchedule[_beneficiary].amount == 0, \"Schedule already exists\");\n\n    // Create schedule\n    uint256 _durationInSecs = _durationInDays * ONE_DAY_IN_SECONDS;\n    vestingSchedule[_beneficiary] = Schedule({\n      startTimestamp: _startTimestamp,\n      endTimestamp: _startTimestamp + _durationInSecs,\n      canceledTimestamp: 0,\n      amount: _amount,\n      totalDrawn: 0,\n      lastDrawnAt: 0,\n      withdrawRate: _amount / _durationInSecs\n    });\n\n    emit ScheduleCreated(_beneficiary, _amount, vestingSchedule[_beneficiary].startTimestamp, _durationInDays);\n\n    // Transfer tokens in the vesting contract on behalf of the beneficiary\n    require(token.transferFrom(_msgSender(), address(this), _amount), \"Unable to transfer tokens to vesting contract\");\n  }\n\n  // Cancel vesting schedule for beneficiary\n  function cancelVestingForBeneficiary(address _beneficiary) public onlyAdmin {\n    Schedule storage item = vestingSchedule[_beneficiary];\n    require(item.canceledTimestamp == 0, \"Can not cancel twice\");\n    require(item.endTimestamp > block.timestamp, \"Vesting is already finished\");\n\n    uint256 availableAmount = this.getAvailableWithdrawAmountForSchedule(item);\n\n    item.canceledTimestamp = block.timestamp;\n\n    uint256 finalAmountForBeneficiary = availableAmount + item.totalDrawn;\n    uint256 amountToRetrieveToOwner = item.amount - finalAmountForBeneficiary;\n\n    // Set final amount for beneficiary\n    item.amount = finalAmountForBeneficiary;\n\n    // Return unvested tokens to owner\n    require(token.transfer(admin, amountToRetrieveToOwner), \"Unable to transfer tokens\");\n\n    emit ScheduleCancelled(_beneficiary, _msgSender(), availableAmount, vestingSchedule[_beneficiary].canceledTimestamp);\n  }\n\n  // Emergency withdrawal (Whole balance)\n  function emergencyWithdrawAllTokens() public onlyAdmin {\n    uint256 balance = token.balanceOf(address(this));\n    // Return all tokens to the owner\n    require(token.transfer(admin, balance), \"Unable to transfer tokens\");\n  }\n\n  function withdraw() external nonReentrant {\n    Schedule memory schedule = vestingSchedule[_msgSender()];\n    require(schedule.amount > 0, \"There is no schedule currently in flight\");\n\n    // available right now\n    uint256 amount = this.getAvailableWithdrawAmountForSchedule(schedule);\n    require(amount > 0, \"Nothing to withdraw\");\n\n    // Update last drawn to now\n    vestingSchedule[_msgSender()].lastDrawnAt = block.timestamp;\n\n    // Increase total drawn amount\n    vestingSchedule[_msgSender()].totalDrawn = schedule.totalDrawn + amount;\n\n    // Issue tokens to beneficiary\n    require(token.transfer(_msgSender(), amount), \"Unable to transfer tokens\");\n\n    emit Withdraw(_msgSender(), amount, block.timestamp);\n  }\n\n  // Accessors\n  function tokenBalance() external view returns (uint256) {\n    return token.balanceOf(address(this));\n  }\n\n  function vestingScheduleForBeneficiary(address _beneficiary)\n    external\n    view\n    returns (\n      uint256 _startTimestamp,\n      uint256 _endTimestamp,\n      uint256 _canceledTimestamp,\n      uint256 _amount,\n      uint256 _totalDrawn,\n      uint256 _lastDrawnAt,\n      uint256 _withdrawRate,\n      uint256 _remainingBalance\n    )\n  {\n    Schedule memory schedule = vestingSchedule[_beneficiary];\n    return (\n      schedule.startTimestamp,\n      schedule.endTimestamp,\n      schedule.canceledTimestamp,\n      schedule.amount,\n      schedule.totalDrawn,\n      schedule.lastDrawnAt,\n      schedule.withdrawRate,\n      schedule.amount - schedule.totalDrawn\n    );\n  }\n\n  function getAvailableWithdrawAmountForAddress(address _beneficiary) external view returns (uint256 _amount) {\n    Schedule memory schedule = vestingSchedule[_beneficiary];\n    return this.getAvailableWithdrawAmountForSchedule(schedule);\n  }\n\n  function getAvailableWithdrawAmountForSchedule(Schedule memory _schedule) external view returns (uint256 _amount) {\n    // Vesting haven't started\n    if (block.timestamp <= _schedule.startTimestamp) {\n      return 0;\n    }\n\n    // Ended\n    if (block.timestamp > _schedule.endTimestamp && _schedule.canceledTimestamp == 0) {\n      return _schedule.amount - _schedule.totalDrawn;\n    }\n\n    // Canceled\n    if (block.timestamp > _schedule.canceledTimestamp && _schedule.canceledTimestamp != 0) {\n      uint256 timeVestedSinceCanceled = _schedule.canceledTimestamp - _schedule.startTimestamp;\n      return timeVestedSinceCanceled * _schedule.withdrawRate - _schedule.totalDrawn;\n    }\n\n    // Active\n    uint256 timePassedFromVestingStart = block.timestamp - _schedule.startTimestamp;\n    return timePassedFromVestingStart * _schedule.withdrawRate - _schedule.totalDrawn;\n  }\n\n  // AAG Access modifier\n\n  modifier onlyAdmin() {\n    require(_msgSender() == admin, \"Permission denied\");\n    _;\n  }\n}\n",
  "sourcePath": "/Users/mariussilenskis/AAGDevelopment/aag-token/contracts/AAGVestingContract.sol",
  "compiler": {
    "name": "solc",
    "version": "0.8.9+commit.e5eed63a.Emscripten.clang"
  },
  "schemaVersion": "3.2.3",
  "updatedAt": "2021-10-18T17:02:24.811Z",
  "devdoc": {
    "kind": "dev",
    "methods": {},
    "version": 1
  },
  "userdoc": {
    "kind": "user",
    "methods": {},
    "version": 1
  }
}